{
  "address": "0x0165878A594ca255338adfa4d48449f69242Eb8F",
  "abi": [
    {
      "inputs": [
        {
          "internalType": "address",
          "name": "atomicizerAddress",
          "type": "address"
        }
      ],
      "stateMutability": "nonpayable",
      "type": "constructor"
    },
    {
      "inputs": [
        {
          "internalType": "bytes",
          "name": "extra",
          "type": "bytes"
        },
        {
          "internalType": "address[7]",
          "name": "addresses",
          "type": "address[7]"
        },
        {
          "internalType": "enum AuthenticatedProxy.HowToCall[2]",
          "name": "howToCalls",
          "type": "uint8[2]"
        },
        {
          "internalType": "uint256[6]",
          "name": "uints",
          "type": "uint256[6]"
        },
        {
          "internalType": "bytes",
          "name": "data",
          "type": "bytes"
        },
        {
          "internalType": "bytes",
          "name": "counterdata",
          "type": "bytes"
        }
      ],
      "name": "and",
      "outputs": [],
      "stateMutability": "view",
      "type": "function"
    },
    {
      "inputs": [
        {
          "internalType": "bytes",
          "name": "",
          "type": "bytes"
        },
        {
          "internalType": "address[7]",
          "name": "",
          "type": "address[7]"
        },
        {
          "internalType": "enum AuthenticatedProxy.HowToCall[2]",
          "name": "",
          "type": "uint8[2]"
        },
        {
          "internalType": "uint256[6]",
          "name": "",
          "type": "uint256[6]"
        },
        {
          "internalType": "bytes",
          "name": "",
          "type": "bytes"
        },
        {
          "internalType": "bytes",
          "name": "",
          "type": "bytes"
        }
      ],
      "name": "any",
      "outputs": [
        {
          "internalType": "uint256",
          "name": "",
          "type": "uint256"
        }
      ],
      "stateMutability": "pure",
      "type": "function"
    },
    {
      "inputs": [
        {
          "internalType": "bytes",
          "name": "",
          "type": "bytes"
        },
        {
          "internalType": "address[7]",
          "name": "",
          "type": "address[7]"
        },
        {
          "internalType": "enum AuthenticatedProxy.HowToCall[2]",
          "name": "",
          "type": "uint8[2]"
        },
        {
          "internalType": "uint256[6]",
          "name": "uints",
          "type": "uint256[6]"
        },
        {
          "internalType": "bytes",
          "name": "",
          "type": "bytes"
        },
        {
          "internalType": "bytes",
          "name": "",
          "type": "bytes"
        }
      ],
      "name": "anyAddOne",
      "outputs": [
        {
          "internalType": "uint256",
          "name": "",
          "type": "uint256"
        }
      ],
      "stateMutability": "pure",
      "type": "function"
    },
    {
      "inputs": [
        {
          "internalType": "bytes",
          "name": "",
          "type": "bytes"
        },
        {
          "internalType": "address[7]",
          "name": "",
          "type": "address[7]"
        },
        {
          "internalType": "enum AuthenticatedProxy.HowToCall[2]",
          "name": "",
          "type": "uint8[2]"
        },
        {
          "internalType": "uint256[6]",
          "name": "",
          "type": "uint256[6]"
        },
        {
          "internalType": "bytes",
          "name": "",
          "type": "bytes"
        },
        {
          "internalType": "bytes",
          "name": "",
          "type": "bytes"
        }
      ],
      "name": "anyNoFill",
      "outputs": [
        {
          "internalType": "uint256",
          "name": "",
          "type": "uint256"
        }
      ],
      "stateMutability": "pure",
      "type": "function"
    },
    {
      "inputs": [
        {
          "internalType": "bytes",
          "name": "",
          "type": "bytes"
        },
        {
          "internalType": "address[7]",
          "name": "",
          "type": "address[7]"
        },
        {
          "internalType": "enum AuthenticatedProxy.HowToCall",
          "name": "",
          "type": "uint8"
        },
        {
          "internalType": "uint256[6]",
          "name": "",
          "type": "uint256[6]"
        },
        {
          "internalType": "bytes",
          "name": "",
          "type": "bytes"
        }
      ],
      "name": "anySingle",
      "outputs": [],
      "stateMutability": "pure",
      "type": "function"
    },
    {
      "inputs": [],
      "name": "atomicizer",
      "outputs": [
        {
          "internalType": "address",
          "name": "",
          "type": "address"
        }
      ],
      "stateMutability": "view",
      "type": "function"
    },
    {
      "inputs": [
        {
          "internalType": "bytes",
          "name": "extra",
          "type": "bytes"
        },
        {
          "internalType": "address[7]",
          "name": "addresses",
          "type": "address[7]"
        },
        {
          "internalType": "enum AuthenticatedProxy.HowToCall[2]",
          "name": "howToCalls",
          "type": "uint8[2]"
        },
        {
          "internalType": "uint256[6]",
          "name": "uints",
          "type": "uint256[6]"
        },
        {
          "internalType": "bytes",
          "name": "cdata",
          "type": "bytes"
        },
        {
          "internalType": "bytes",
          "name": "",
          "type": "bytes"
        }
      ],
      "name": "dumbSequenceExact",
      "outputs": [
        {
          "internalType": "uint256",
          "name": "",
          "type": "uint256"
        }
      ],
      "stateMutability": "view",
      "type": "function"
    },
    {
      "inputs": [],
      "name": "name",
      "outputs": [
        {
          "internalType": "string",
          "name": "",
          "type": "string"
        }
      ],
      "stateMutability": "view",
      "type": "function"
    },
    {
      "inputs": [
        {
          "internalType": "bytes",
          "name": "extra",
          "type": "bytes"
        },
        {
          "internalType": "address[7]",
          "name": "addresses",
          "type": "address[7]"
        },
        {
          "internalType": "enum AuthenticatedProxy.HowToCall[2]",
          "name": "howToCalls",
          "type": "uint8[2]"
        },
        {
          "internalType": "uint256[6]",
          "name": "uints",
          "type": "uint256[6]"
        },
        {
          "internalType": "bytes",
          "name": "data",
          "type": "bytes"
        },
        {
          "internalType": "bytes",
          "name": "counterdata",
          "type": "bytes"
        }
      ],
      "name": "or",
      "outputs": [],
      "stateMutability": "view",
      "type": "function"
    },
    {
      "inputs": [
        {
          "internalType": "bytes",
          "name": "extra",
          "type": "bytes"
        },
        {
          "internalType": "address[7]",
          "name": "addresses",
          "type": "address[7]"
        },
        {
          "internalType": "enum AuthenticatedProxy.HowToCall",
          "name": "howToCall",
          "type": "uint8"
        },
        {
          "internalType": "uint256[6]",
          "name": "uints",
          "type": "uint256[6]"
        },
        {
          "internalType": "bytes",
          "name": "cdata",
          "type": "bytes"
        }
      ],
      "name": "sequenceAnyAfter",
      "outputs": [],
      "stateMutability": "view",
      "type": "function"
    },
    {
      "inputs": [
        {
          "internalType": "bytes",
          "name": "extra",
          "type": "bytes"
        },
        {
          "internalType": "address[7]",
          "name": "addresses",
          "type": "address[7]"
        },
        {
          "internalType": "enum AuthenticatedProxy.HowToCall",
          "name": "howToCall",
          "type": "uint8"
        },
        {
          "internalType": "uint256[6]",
          "name": "uints",
          "type": "uint256[6]"
        },
        {
          "internalType": "bytes",
          "name": "cdata",
          "type": "bytes"
        }
      ],
      "name": "sequenceExact",
      "outputs": [],
      "stateMutability": "view",
      "type": "function"
    },
    {
      "inputs": [
        {
          "internalType": "bytes",
          "name": "extra",
          "type": "bytes"
        },
        {
          "internalType": "address[7]",
          "name": "addresses",
          "type": "address[7]"
        },
        {
          "internalType": "enum AuthenticatedProxy.HowToCall[2]",
          "name": "howToCalls",
          "type": "uint8[2]"
        },
        {
          "internalType": "uint256[6]",
          "name": "uints",
          "type": "uint256[6]"
        },
        {
          "internalType": "bytes",
          "name": "data",
          "type": "bytes"
        },
        {
          "internalType": "bytes",
          "name": "counterdata",
          "type": "bytes"
        }
      ],
      "name": "split",
      "outputs": [
        {
          "internalType": "uint256",
          "name": "",
          "type": "uint256"
        }
      ],
      "stateMutability": "view",
      "type": "function"
    },
    {
      "inputs": [
        {
          "internalType": "bytes",
          "name": "extra",
          "type": "bytes"
        },
        {
          "internalType": "address[7]",
          "name": "addresses",
          "type": "address[7]"
        },
        {
          "internalType": "enum AuthenticatedProxy.HowToCall[2]",
          "name": "howToCalls",
          "type": "uint8[2]"
        },
        {
          "internalType": "uint256[6]",
          "name": "uints",
          "type": "uint256[6]"
        },
        {
          "internalType": "bytes",
          "name": "data",
          "type": "bytes"
        },
        {
          "internalType": "bytes",
          "name": "counterdata",
          "type": "bytes"
        }
      ],
      "name": "splitAddOne",
      "outputs": [
        {
          "internalType": "uint256",
          "name": "",
          "type": "uint256"
        }
      ],
      "stateMutability": "view",
      "type": "function"
    },
    {
      "inputs": [
        {
          "internalType": "bytes",
          "name": "extra",
          "type": "bytes"
        },
        {
          "internalType": "address[7]",
          "name": "addresses",
          "type": "address[7]"
        },
        {
          "internalType": "enum AuthenticatedProxy.HowToCall[2]",
          "name": "howToCalls",
          "type": "uint8[2]"
        },
        {
          "internalType": "uint256[6]",
          "name": "uints",
          "type": "uint256[6]"
        },
        {
          "internalType": "bytes",
          "name": "data",
          "type": "bytes"
        },
        {
          "internalType": "bytes",
          "name": "counterdata",
          "type": "bytes"
        }
      ],
      "name": "swapExact",
      "outputs": [
        {
          "internalType": "uint256",
          "name": "",
          "type": "uint256"
        }
      ],
      "stateMutability": "pure",
      "type": "function"
    },
    {
      "inputs": [
        {
          "internalType": "bytes",
          "name": "extra",
          "type": "bytes"
        },
        {
          "internalType": "address[7]",
          "name": "addresses",
          "type": "address[7]"
        },
        {
          "internalType": "enum AuthenticatedProxy.HowToCall[2]",
          "name": "howToCalls",
          "type": "uint8[2]"
        },
        {
          "internalType": "uint256[6]",
          "name": "uints",
          "type": "uint256[6]"
        },
        {
          "internalType": "bytes",
          "name": "data",
          "type": "bytes"
        },
        {
          "internalType": "bytes",
          "name": "counterdata",
          "type": "bytes"
        }
      ],
      "name": "swapForever",
      "outputs": [
        {
          "internalType": "uint256",
          "name": "",
          "type": "uint256"
        }
      ],
      "stateMutability": "pure",
      "type": "function"
    },
    {
      "inputs": [
        {
          "internalType": "bytes",
          "name": "extra",
          "type": "bytes"
        },
        {
          "internalType": "address[7]",
          "name": "addresses",
          "type": "address[7]"
        },
        {
          "internalType": "enum AuthenticatedProxy.HowToCall[2]",
          "name": "howToCalls",
          "type": "uint8[2]"
        },
        {
          "internalType": "uint256[6]",
          "name": "uints",
          "type": "uint256[6]"
        },
        {
          "internalType": "bytes",
          "name": "data",
          "type": "bytes"
        },
        {
          "internalType": "bytes",
          "name": "counterdata",
          "type": "bytes"
        }
      ],
      "name": "swapOneForOneERC1155",
      "outputs": [
        {
          "internalType": "uint256",
          "name": "",
          "type": "uint256"
        }
      ],
      "stateMutability": "pure",
      "type": "function"
    },
    {
      "inputs": [
        {
          "internalType": "bytes",
          "name": "extra",
          "type": "bytes"
        },
        {
          "internalType": "address[7]",
          "name": "addresses",
          "type": "address[7]"
        },
        {
          "internalType": "enum AuthenticatedProxy.HowToCall[2]",
          "name": "howToCalls",
          "type": "uint8[2]"
        },
        {
          "internalType": "uint256[6]",
          "name": "uints",
          "type": "uint256[6]"
        },
        {
          "internalType": "bytes",
          "name": "data",
          "type": "bytes"
        },
        {
          "internalType": "bytes",
          "name": "counterdata",
          "type": "bytes"
        }
      ],
      "name": "swapOneForOneERC1155Decoding",
      "outputs": [
        {
          "internalType": "uint256",
          "name": "",
          "type": "uint256"
        }
      ],
      "stateMutability": "pure",
      "type": "function"
    },
    {
      "inputs": [
        {
          "internalType": "bytes",
          "name": "extra",
          "type": "bytes"
        },
        {
          "internalType": "address[7]",
          "name": "addresses",
          "type": "address[7]"
        },
        {
          "internalType": "enum AuthenticatedProxy.HowToCall[2]",
          "name": "howToCalls",
          "type": "uint8[2]"
        },
        {
          "internalType": "uint256[6]",
          "name": "uints",
          "type": "uint256[6]"
        },
        {
          "internalType": "bytes",
          "name": "data",
          "type": "bytes"
        },
        {
          "internalType": "bytes",
          "name": "counterdata",
          "type": "bytes"
        }
      ],
      "name": "swapOneForOneERC3525",
      "outputs": [
        {
          "internalType": "uint256",
          "name": "",
          "type": "uint256"
        }
      ],
      "stateMutability": "pure",
      "type": "function"
    },
    {
      "inputs": [
        {
          "internalType": "bytes",
          "name": "extra",
          "type": "bytes"
        },
        {
          "internalType": "address[7]",
          "name": "addresses",
          "type": "address[7]"
        },
        {
          "internalType": "enum AuthenticatedProxy.HowToCall[2]",
          "name": "howToCalls",
          "type": "uint8[2]"
        },
        {
          "internalType": "uint256[6]",
          "name": "uints",
          "type": "uint256[6]"
        },
        {
          "internalType": "bytes",
          "name": "data",
          "type": "bytes"
        },
        {
          "internalType": "bytes",
          "name": "counterdata",
          "type": "bytes"
        }
      ],
      "name": "swapOneForOneERC3525Decoding",
      "outputs": [
        {
          "internalType": "uint256",
          "name": "",
          "type": "uint256"
        }
      ],
      "stateMutability": "pure",
      "type": "function"
    },
    {
      "inputs": [
        {
          "internalType": "bytes",
          "name": "extra",
          "type": "bytes"
        },
        {
          "internalType": "address[7]",
          "name": "addresses",
          "type": "address[7]"
        },
        {
          "internalType": "enum AuthenticatedProxy.HowToCall[2]",
          "name": "howToCalls",
          "type": "uint8[2]"
        },
        {
          "internalType": "uint256[6]",
          "name": "uints",
          "type": "uint256[6]"
        },
        {
          "internalType": "bytes",
          "name": "data",
          "type": "bytes"
        },
        {
          "internalType": "bytes",
          "name": "counterdata",
          "type": "bytes"
        }
      ],
      "name": "swapOneForOneERC721",
      "outputs": [
        {
          "internalType": "uint256",
          "name": "",
          "type": "uint256"
        }
      ],
      "stateMutability": "pure",
      "type": "function"
    },
    {
      "inputs": [
        {
          "internalType": "bytes",
          "name": "extra",
          "type": "bytes"
        },
        {
          "internalType": "address[7]",
          "name": "addresses",
          "type": "address[7]"
        },
        {
          "internalType": "enum AuthenticatedProxy.HowToCall[2]",
          "name": "howToCalls",
          "type": "uint8[2]"
        },
        {
          "internalType": "uint256[6]",
          "name": "uints",
          "type": "uint256[6]"
        },
        {
          "internalType": "bytes",
          "name": "data",
          "type": "bytes"
        },
        {
          "internalType": "bytes",
          "name": "counterdata",
          "type": "bytes"
        }
      ],
      "name": "swapOneForOneERC721Decoding",
      "outputs": [
        {
          "internalType": "uint256",
          "name": "",
          "type": "uint256"
        }
      ],
      "stateMutability": "pure",
      "type": "function"
    },
    {
      "inputs": [],
      "name": "test",
      "outputs": [],
      "stateMutability": "pure",
      "type": "function"
    },
    {
      "inputs": [
        {
          "internalType": "bytes",
          "name": "extra",
          "type": "bytes"
        },
        {
          "internalType": "address[7]",
          "name": "addresses",
          "type": "address[7]"
        },
        {
          "internalType": "enum AuthenticatedProxy.HowToCall",
          "name": "howToCall",
          "type": "uint8"
        },
        {
          "internalType": "uint256[6]",
          "name": "",
          "type": "uint256[6]"
        },
        {
          "internalType": "bytes",
          "name": "data",
          "type": "bytes"
        }
      ],
      "name": "transferERC1155Exact",
      "outputs": [],
      "stateMutability": "pure",
      "type": "function"
    },
    {
      "inputs": [
        {
          "internalType": "bytes",
          "name": "extra",
          "type": "bytes"
        },
        {
          "internalType": "address[7]",
          "name": "addresses",
          "type": "address[7]"
        },
        {
          "internalType": "enum AuthenticatedProxy.HowToCall",
          "name": "howToCall",
          "type": "uint8"
        },
        {
          "internalType": "uint256[6]",
          "name": "",
          "type": "uint256[6]"
        },
        {
          "internalType": "bytes",
          "name": "data",
          "type": "bytes"
        }
      ],
      "name": "transferERC20Exact",
      "outputs": [],
      "stateMutability": "pure",
      "type": "function"
    },
    {
      "inputs": [
        {
          "internalType": "bytes",
          "name": "extra",
          "type": "bytes"
        },
        {
          "internalType": "address[7]",
          "name": "addresses",
          "type": "address[7]"
        },
        {
          "internalType": "enum AuthenticatedProxy.HowToCall",
          "name": "howToCall",
          "type": "uint8"
        },
        {
          "internalType": "uint256[6]",
          "name": "",
          "type": "uint256[6]"
        },
        {
          "internalType": "bytes",
          "name": "data",
          "type": "bytes"
        }
      ],
      "name": "transferERC3525Exact",
      "outputs": [],
      "stateMutability": "pure",
      "type": "function"
    },
    {
      "inputs": [
        {
          "internalType": "bytes",
          "name": "extra",
          "type": "bytes"
        },
        {
          "internalType": "address[7]",
          "name": "addresses",
          "type": "address[7]"
        },
        {
          "internalType": "enum AuthenticatedProxy.HowToCall",
          "name": "howToCall",
          "type": "uint8"
        },
        {
          "internalType": "uint256[6]",
          "name": "",
          "type": "uint256[6]"
        },
        {
          "internalType": "bytes",
          "name": "data",
          "type": "bytes"
        }
      ],
      "name": "transferERC721Exact",
      "outputs": [],
      "stateMutability": "pure",
      "type": "function"
    }
  ],
  "transactionHash": "0xbbdb3cb456cd66f194d668ba5854e3944ff5c06ce4d73b5af316e3cf6a88c2bd",
  "args": [
    "0x5FC8d32690cc91D4c39d9d3abcBD16989F875707"
  ],
  "numDeployments": 2,
  "solcInputHash": "94cff60741380fdd189a79927af59344",
  "bytecode": "0x60806040523480156200001157600080fd5b506040516200603438038062006034833981810160405260208110156200003757600080fd5b5051600080546001600160a01b039092166001600160a01b0319909216919091179055615fca806200006a6000396000f3fe608060405234801561001057600080fd5b506004361061016e5760003560e01c8063883ee430116100ce578063ba35274311610087578063ba35274314612078578063dcbcb5d9146122a8578063ddf98cc2146124d8578063e1beb48414612708578063ed94fc6614612938578063f6280c8614612ac8578063f8a8fd6d14612cf85761016e565b8063883ee430146116c8578063a09858da146118f8578063a7dc210a14611b28578063ac5cc03f14611d58578063b67bf13414611ee8578063b6c8184b14610ae65761016e565b8063265a87e71161012b578063265a87e714610ae65780632c05190414610c785780632e0b69db14610c785780634563928f14610e085780634e9413f9146110385780637557ef9814611268578063837b54ad146114985761016e565b8063025b6d341461017357806306fdde03146103b55780630c8fe096146104325780630d3b91d41461066257806320e9a8181461068657806323f62d9c146108b6575b600080fd5b6103a3600480360361024081101561018a57600080fd5b810190602081018135600160201b8111156101a457600080fd5b8201836020820111156101b657600080fd5b803590602001918460018302840111600160201b831117156101d757600080fd5b91908080601f016020809104026020016040519081016040528093929190818152602001838380828437600092019190915250506040805160e081810190925293969594818101949350915060079083908390808284376000920191909152505060408051808201825292959493818101939250906002908390839080828437600092019190915250506040805160c08181019092529295949381810193925090600690839083908082843760009201919091525091949392602081019250359050600160201b8111156102aa57600080fd5b8201836020820111156102bc57600080fd5b803590602001918460018302840111600160201b831117156102dd57600080fd5b91908080601f0160208091040260200160405190810160405280939291908181526020018383808284376000920191909152509295949360208101935035915050600160201b81111561032f57600080fd5b82018360208201111561034157600080fd5b803590602001918460018302840111600160201b8311171561036257600080fd5b91908080601f016020809104026020016040519081016040528093929190818152602001838380828437600092019190915250929550612d00945050505050565b60408051918252519081900360200190f35b6103bd612d22565b6040805160208082528351818301528351919283929083019185019080838360005b838110156103f75781810151838201526020016103df565b50505050905090810190601f1680156104245780820380516001836020036101000a031916815260200191505b509250505060405180910390f35b6103a3600480360361024081101561044957600080fd5b810190602081018135600160201b81111561046357600080fd5b82018360208201111561047557600080fd5b803590602001918460018302840111600160201b8311171561049657600080fd5b91908080601f016020809104026020016040519081016040528093929190818152602001838380828437600092019190915250506040805160e081810190925293969594818101949350915060079083908390808284376000920191909152505060408051808201825292959493818101939250906002908390839080828437600092019190915250506040805160c08181019092529295949381810193925090600690839083908082843760009201919091525091949392602081019250359050600160201b81111561056957600080fd5b82018360208201111561057b57600080fd5b803590602001918460018302840111600160201b8311171561059c57600080fd5b91908080601f0160208091040260200160405190810160405280939291908181526020018383808284376000920191909152509295949360208101935035915050600160201b8111156105ee57600080fd5b82018360208201111561060057600080fd5b803590602001918460018302840111600160201b8311171561062157600080fd5b91908080601f016020809104026020016040519081016040528093929190818152602001838380828437600092019190915250929550612d4b945050505050565b61066a612f61565b604080516001600160a01b039092168252519081900360200190f35b6103a3600480360361024081101561069d57600080fd5b810190602081018135600160201b8111156106b757600080fd5b8201836020820111156106c957600080fd5b803590602001918460018302840111600160201b831117156106ea57600080fd5b91908080601f016020809104026020016040519081016040528093929190818152602001838380828437600092019190915250506040805160e081810190925293969594818101949350915060079083908390808284376000920191909152505060408051808201825292959493818101939250906002908390839080828437600092019190915250506040805160c08181019092529295949381810193925090600690839083908082843760009201919091525091949392602081019250359050600160201b8111156107bd57600080fd5b8201836020820111156107cf57600080fd5b803590602001918460018302840111600160201b831117156107f057600080fd5b91908080601f0160208091040260200160405190810160405280939291908181526020018383808284376000920191909152509295949360208101935035915050600160201b81111561084257600080fd5b82018360208201111561085457600080fd5b803590602001918460018302840111600160201b8311171561087557600080fd5b91908080601f016020809104026020016040519081016040528093929190818152602001838380828437600092019190915250929550612f70945050505050565b6103a360048036036102408110156108cd57600080fd5b810190602081018135600160201b8111156108e757600080fd5b8201836020820111156108f957600080fd5b803590602001918460018302840111600160201b8311171561091a57600080fd5b91908080601f016020809104026020016040519081016040528093929190818152602001838380828437600092019190915250506040805160e081810190925293969594818101949350915060079083908390808284376000920191909152505060408051808201825292959493818101939250906002908390839080828437600092019190915250506040805160c08181019092529295949381810193925090600690839083908082843760009201919091525091949392602081019250359050600160201b8111156109ed57600080fd5b8201836020820111156109ff57600080fd5b803590602001918460018302840111600160201b83111715610a2057600080fd5b91908080601f0160208091040260200160405190810160405280939291908181526020018383808284376000920191909152509295949360208101935035915050600160201b811115610a7257600080fd5b820183602082011115610a8457600080fd5b803590602001918460018302840111600160201b83111715610aa557600080fd5b91908080601f0160208091040260200160405190810160405280939291908181526020018383808284376000920191909152509295506133a6945050505050565b610c766004803603610200811015610afd57600080fd5b810190602081018135600160201b811115610b1757600080fd5b820183602082011115610b2957600080fd5b803590602001918460018302840111600160201b83111715610b4a57600080fd5b91908080601f016020809104026020016040519081016040528093929190818152602001838380828437600092019190915250506040805160e08181019092529396959481810194935091506007908390839080828437600092019190915250506040805160c0818101909252929560ff853516959094909360e08201935091602090910190600690839083908082843760009201919091525091949392602081019250359050600160201b811115610c0257600080fd5b820183602082011115610c1457600080fd5b803590602001918460018302840111600160201b83111715610c3557600080fd5b91908080601f016020809104026020016040519081016040528093929190818152602001838380828437600092019190915250929550613508945050505050565b005b610c766004803603610200811015610c8f57600080fd5b810190602081018135600160201b811115610ca957600080fd5b820183602082011115610cbb57600080fd5b803590602001918460018302840111600160201b83111715610cdc57600080fd5b91908080601f016020809104026020016040519081016040528093929190818152602001838380828437600092019190915250506040805160e08181019092529396959481810194935091506007908390839080828437600092019190915250506040805160c0818101909252929560ff853516959094909360e08201935091602090910190600690839083908082843760009201919091525091949392602081019250359050600160201b811115610d9457600080fd5b820183602082011115610da657600080fd5b803590602001918460018302840111600160201b83111715610dc757600080fd5b91908080601f0160208091040260200160405190810160405280939291908181526020018383808284376000920191909152509295506135e2945050505050565b6103a36004803603610240811015610e1f57600080fd5b810190602081018135600160201b811115610e3957600080fd5b820183602082011115610e4b57600080fd5b803590602001918460018302840111600160201b83111715610e6c57600080fd5b91908080601f016020809104026020016040519081016040528093929190818152602001838380828437600092019190915250506040805160e081810190925293969594818101949350915060079083908390808284376000920191909152505060408051808201825292959493818101939250906002908390839080828437600092019190915250506040805160c08181019092529295949381810193925090600690839083908082843760009201919091525091949392602081019250359050600160201b811115610f3f57600080fd5b820183602082011115610f5157600080fd5b803590602001918460018302840111600160201b83111715610f7257600080fd5b91908080601f0160208091040260200160405190810160405280939291908181526020018383808284376000920191909152509295949360208101935035915050600160201b811115610fc457600080fd5b820183602082011115610fd657600080fd5b803590602001918460018302840111600160201b83111715610ff757600080fd5b91908080601f0160208091040260200160405190810160405280939291908181526020018383808284376000920191909152509295506136dc945050505050565b610c76600480360361024081101561104f57600080fd5b810190602081018135600160201b81111561106957600080fd5b82018360208201111561107b57600080fd5b803590602001918460018302840111600160201b8311171561109c57600080fd5b91908080601f016020809104026020016040519081016040528093929190818152602001838380828437600092019190915250506040805160e081810190925293969594818101949350915060079083908390808284376000920191909152505060408051808201825292959493818101939250906002908390839080828437600092019190915250506040805160c08181019092529295949381810193925090600690839083908082843760009201919091525091949392602081019250359050600160201b81111561116f57600080fd5b82018360208201111561118157600080fd5b803590602001918460018302840111600160201b831117156111a257600080fd5b91908080601f0160208091040260200160405190810160405280939291908181526020018383808284376000920191909152509295949360208101935035915050600160201b8111156111f457600080fd5b82018360208201111561120657600080fd5b803590602001918460018302840111600160201b8311171561122757600080fd5b91908080601f01602080910402602001604051908101604052809392919081815260200183838082843760009201919091525092955061392d945050505050565b6103a3600480360361024081101561127f57600080fd5b810190602081018135600160201b81111561129957600080fd5b8201836020820111156112ab57600080fd5b803590602001918460018302840111600160201b831117156112cc57600080fd5b91908080601f016020809104026020016040519081016040528093929190818152602001838380828437600092019190915250506040805160e081810190925293969594818101949350915060079083908390808284376000920191909152505060408051808201825292959493818101939250906002908390839080828437600092019190915250506040805160c08181019092529295949381810193925090600690839083908082843760009201919091525091949392602081019250359050600160201b81111561139f57600080fd5b8201836020820111156113b157600080fd5b803590602001918460018302840111600160201b831117156113d257600080fd5b91908080601f0160208091040260200160405190810160405280939291908181526020018383808284376000920191909152509295949360208101935035915050600160201b81111561142457600080fd5b82018360208201111561143657600080fd5b803590602001918460018302840111600160201b8311171561145757600080fd5b91908080601f016020809104026020016040519081016040528093929190818152602001838380828437600092019190915250929550613eb4945050505050565b6103a360048036036102408110156114af57600080fd5b810190602081018135600160201b8111156114c957600080fd5b8201836020820111156114db57600080fd5b803590602001918460018302840111600160201b831117156114fc57600080fd5b91908080601f016020809104026020016040519081016040528093929190818152602001838380828437600092019190915250506040805160e081810190925293969594818101949350915060079083908390808284376000920191909152505060408051808201825292959493818101939250906002908390839080828437600092019190915250506040805160c08181019092529295949381810193925090600690839083908082843760009201919091525091949392602081019250359050600160201b8111156115cf57600080fd5b8201836020820111156115e157600080fd5b803590602001918460018302840111600160201b8311171561160257600080fd5b91908080601f0160208091040260200160405190810160405280939291908181526020018383808284376000920191909152509295949360208101935035915050600160201b81111561165457600080fd5b82018360208201111561166657600080fd5b803590602001918460018302840111600160201b8311171561168757600080fd5b91908080601f016020809104026020016040519081016040528093929190818152602001838380828437600092019190915250929550613fd4945050505050565b6103a360048036036102408110156116df57600080fd5b810190602081018135600160201b8111156116f957600080fd5b82018360208201111561170b57600080fd5b803590602001918460018302840111600160201b8311171561172c57600080fd5b91908080601f016020809104026020016040519081016040528093929190818152602001838380828437600092019190915250506040805160e081810190925293969594818101949350915060079083908390808284376000920191909152505060408051808201825292959493818101939250906002908390839080828437600092019190915250506040805160c08181019092529295949381810193925090600690839083908082843760009201919091525091949392602081019250359050600160201b8111156117ff57600080fd5b82018360208201111561181157600080fd5b803590602001918460018302840111600160201b8311171561183257600080fd5b91908080601f0160208091040260200160405190810160405280939291908181526020018383808284376000920191909152509295949360208101935035915050600160201b81111561188457600080fd5b82018360208201111561189657600080fd5b803590602001918460018302840111600160201b831117156118b757600080fd5b91908080601f016020809104026020016040519081016040528093929190818152602001838380828437600092019190915250929550613fe0945050505050565b6103a3600480360361024081101561190f57600080fd5b810190602081018135600160201b81111561192957600080fd5b82018360208201111561193b57600080fd5b803590602001918460018302840111600160201b8311171561195c57600080fd5b91908080601f016020809104026020016040519081016040528093929190818152602001838380828437600092019190915250506040805160e081810190925293969594818101949350915060079083908390808284376000920191909152505060408051808201825292959493818101939250906002908390839080828437600092019190915250506040805160c08181019092529295949381810193925090600690839083908082843760009201919091525091949392602081019250359050600160201b811115611a2f57600080fd5b820183602082011115611a4157600080fd5b803590602001918460018302840111600160201b83111715611a6257600080fd5b91908080601f0160208091040260200160405190810160405280939291908181526020018383808284376000920191909152509295949360208101935035915050600160201b811115611ab457600080fd5b820183602082011115611ac657600080fd5b803590602001918460018302840111600160201b83111715611ae757600080fd5b91908080601f0160208091040260200160405190810160405280939291908181526020018383808284376000920191909152509295506142ed945050505050565b6103a36004803603610240811015611b3f57600080fd5b810190602081018135600160201b811115611b5957600080fd5b820183602082011115611b6b57600080fd5b803590602001918460018302840111600160201b83111715611b8c57600080fd5b91908080601f016020809104026020016040519081016040528093929190818152602001838380828437600092019190915250506040805160e081810190925293969594818101949350915060079083908390808284376000920191909152505060408051808201825292959493818101939250906002908390839080828437600092019190915250506040805160c08181019092529295949381810193925090600690839083908082843760009201919091525091949392602081019250359050600160201b811115611c5f57600080fd5b820183602082011115611c7157600080fd5b803590602001918460018302840111600160201b83111715611c9257600080fd5b91908080601f0160208091040260200160405190810160405280939291908181526020018383808284376000920191909152509295949360208101935035915050600160201b811115611ce457600080fd5b820183602082011115611cf657600080fd5b803590602001918460018302840111600160201b83111715611d1757600080fd5b91908080601f016020809104026020016040519081016040528093929190818152602001838380828437600092019190915250929550614306945050505050565b610c766004803603610200811015611d6f57600080fd5b810190602081018135600160201b811115611d8957600080fd5b820183602082011115611d9b57600080fd5b803590602001918460018302840111600160201b83111715611dbc57600080fd5b91908080601f016020809104026020016040519081016040528093929190818152602001838380828437600092019190915250506040805160e08181019092529396959481810194935091506007908390839080828437600092019190915250506040805160c0818101909252929560ff853516959094909360e08201935091602090910190600690839083908082843760009201919091525091949392602081019250359050600160201b811115611e7457600080fd5b820183602082011115611e8657600080fd5b803590602001918460018302840111600160201b83111715611ea757600080fd5b91908080601f016020809104026020016040519081016040528093929190818152602001838380828437600092019190915250929550614521945050505050565b610c766004803603610200811015611eff57600080fd5b810190602081018135600160201b811115611f1957600080fd5b820183602082011115611f2b57600080fd5b803590602001918460018302840111600160201b83111715611f4c57600080fd5b91908080601f016020809104026020016040519081016040528093929190818152602001838380828437600092019190915250506040805160e08181019092529396959481810194935091506007908390839080828437600092019190915250506040805160c0818101909252929560ff853516959094909360e08201935091602090910190600690839083908082843760009201919091525091949392602081019250359050600160201b81111561200457600080fd5b82018360208201111561201657600080fd5b803590602001918460018302840111600160201b8311171561203757600080fd5b91908080601f016020809104026020016040519081016040528093929190818152602001838380828437600092019190915250929550614aa4945050505050565b6103a3600480360361024081101561208f57600080fd5b810190602081018135600160201b8111156120a957600080fd5b8201836020820111156120bb57600080fd5b803590602001918460018302840111600160201b831117156120dc57600080fd5b91908080601f016020809104026020016040519081016040528093929190818152602001838380828437600092019190915250506040805160e081810190925293969594818101949350915060079083908390808284376000920191909152505060408051808201825292959493818101939250906002908390839080828437600092019190915250506040805160c08181019092529295949381810193925090600690839083908082843760009201919091525091949392602081019250359050600160201b8111156121af57600080fd5b8201836020820111156121c157600080fd5b803590602001918460018302840111600160201b831117156121e257600080fd5b91908080601f0160208091040260200160405190810160405280939291908181526020018383808284376000920191909152509295949360208101935035915050600160201b81111561223457600080fd5b82018360208201111561224657600080fd5b803590602001918460018302840111600160201b8311171561226757600080fd5b91908080601f016020809104026020016040519081016040528093929190818152602001838380828437600092019190915250929550614aab945050505050565b610c7660048036036102408110156122bf57600080fd5b810190602081018135600160201b8111156122d957600080fd5b8201836020820111156122eb57600080fd5b803590602001918460018302840111600160201b8311171561230c57600080fd5b91908080601f016020809104026020016040519081016040528093929190818152602001838380828437600092019190915250506040805160e081810190925293969594818101949350915060079083908390808284376000920191909152505060408051808201825292959493818101939250906002908390839080828437600092019190915250506040805160c08181019092529295949381810193925090600690839083908082843760009201919091525091949392602081019250359050600160201b8111156123df57600080fd5b8201836020820111156123f157600080fd5b803590602001918460018302840111600160201b8311171561241257600080fd5b91908080601f0160208091040260200160405190810160405280939291908181526020018383808284376000920191909152509295949360208101935035915050600160201b81111561246457600080fd5b82018360208201111561247657600080fd5b803590602001918460018302840111600160201b8311171561249757600080fd5b91908080601f016020809104026020016040519081016040528093929190818152602001838380828437600092019190915250929550614c3b945050505050565b6103a360048036036102408110156124ef57600080fd5b810190602081018135600160201b81111561250957600080fd5b82018360208201111561251b57600080fd5b803590602001918460018302840111600160201b8311171561253c57600080fd5b91908080601f016020809104026020016040519081016040528093929190818152602001838380828437600092019190915250506040805160e081810190925293969594818101949350915060079083908390808284376000920191909152505060408051808201825292959493818101939250906002908390839080828437600092019190915250506040805160c08181019092529295949381810193925090600690839083908082843760009201919091525091949392602081019250359050600160201b81111561260f57600080fd5b82018360208201111561262157600080fd5b803590602001918460018302840111600160201b8311171561264257600080fd5b91908080601f0160208091040260200160405190810160405280939291908181526020018383808284376000920191909152509295949360208101935035915050600160201b81111561269457600080fd5b8201836020820111156126a657600080fd5b803590602001918460018302840111600160201b831117156126c757600080fd5b91908080601f016020809104026020016040519081016040528093929190818152602001838380828437600092019190915250929550615025945050505050565b6103a3600480360361024081101561271f57600080fd5b810190602081018135600160201b81111561273957600080fd5b82018360208201111561274b57600080fd5b803590602001918460018302840111600160201b8311171561276c57600080fd5b91908080601f016020809104026020016040519081016040528093929190818152602001838380828437600092019190915250506040805160e081810190925293969594818101949350915060079083908390808284376000920191909152505060408051808201825292959493818101939250906002908390839080828437600092019190915250506040805160c08181019092529295949381810193925090600690839083908082843760009201919091525091949392602081019250359050600160201b81111561283f57600080fd5b82018360208201111561285157600080fd5b803590602001918460018302840111600160201b8311171561287257600080fd5b91908080601f0160208091040260200160405190810160405280939291908181526020018383808284376000920191909152509295949360208101935035915050600160201b8111156128c457600080fd5b8201836020820111156128d657600080fd5b803590602001918460018302840111600160201b831117156128f757600080fd5b91908080601f01602080910402602001604051908101604052809392919081815260200183838082843760009201919091525092955061503e945050505050565b610c76600480360361020081101561294f57600080fd5b810190602081018135600160201b81111561296957600080fd5b82018360208201111561297b57600080fd5b803590602001918460018302840111600160201b8311171561299c57600080fd5b91908080601f016020809104026020016040519081016040528093929190818152602001838380828437600092019190915250506040805160e08181019092529396959481810194935091506007908390839080828437600092019190915250506040805160c0818101909252929560ff853516959094909360e08201935091602090910190600690839083908082843760009201919091525091949392602081019250359050600160201b811115612a5457600080fd5b820183602082011115612a6657600080fd5b803590602001918460018302840111600160201b83111715612a8757600080fd5b91908080601f01602080910402602001604051908101604052809392919081815260200183838082843760009201919091525092955061504a945050505050565b6103a36004803603610240811015612adf57600080fd5b810190602081018135600160201b811115612af957600080fd5b820183602082011115612b0b57600080fd5b803590602001918460018302840111600160201b83111715612b2c57600080fd5b91908080601f016020809104026020016040519081016040528093929190818152602001838380828437600092019190915250506040805160e081810190925293969594818101949350915060079083908390808284376000920191909152505060408051808201825292959493818101939250906002908390839080828437600092019190915250506040805160c08181019092529295949381810193925090600690839083908082843760009201919091525091949392602081019250359050600160201b811115612bff57600080fd5b820183602082011115612c1157600080fd5b803590602001918460018302840111600160201b83111715612c3257600080fd5b91908080601f0160208091040260200160405190810160405280939291908181526020018383808284376000920191909152509295949360208101935035915050600160201b811115612c8457600080fd5b820183602082011115612c9657600080fd5b803590602001918460018302840111600160201b83111715612cb757600080fd5b91908080601f0160208091040260200160405190810160405280939291908181526020018383808284376000920191909152509295506155ad945050505050565b610c766157e8565b6000612d158787878460200201518787614521565b5060019695505050505050565b6040518060400160405280600d81526020016c57797665726e2053746174696360981b81525081565b604080516004808252602482019092526020810180516001600160e01b0316637921219560e11b179052600091606091612d84916157ea565b855190915015612d9357600080fd5b612d9b615c1c565b612da3615c1c565b612dab615c1c565b8a80602001905160c0811015612dc057600080fd5b50805160408c810151929550850193506080850192506001600160a01b03918216911614612e1f5760405162461bcd60e51b8152600401808060200182810382526038815260200180615d1d6038913960400191505060405180910390fd5b88516000906001811115612e2f57fe5b14612e6b5760405162461bcd60e51b8152600401808060200182810382526023815260200180615c3b6023913960400191505060405180910390fd5b612e7f84612e7a8960046157ea565b615801565b612e8857600080fd5b612f19878b600160200201518c60045b602002015185518560005b60209081029190910151604080516001600160a01b0396871660248201529490951660448501526064840192909252608483019190915260a060a4830152600060c4830152825180830360e401815261010490920190925290810180516001600160e01b0316637921219560e11b179052615801565b612f2257600080fd5b612f47868b600460200201518c60015b60200201518560016020020151856001612ea3565b612f5057600080fd5b5060019a9950505050505050505050565b6000546001600160a01b031681565b6000612f7a615c1c565b612f82615c1c565b6060808a80602001905160c0811015612f9a57600080fd5b608082018051604080519085019390929085019185919084600160201b821115612fc357600080fd5b908301906020820185811115612fd857600080fd5b8251600160201b811182820188101715612ff157600080fd5b82525081516020918201929091019080838360005b8381101561301e578181015183820152602001613006565b50505050905090810190601f16801561304b5780820380516001836020036101000a031916815260200191505b5060405260200180516040519392919084600160201b82111561306d57600080fd5b90830190602082018581111561308257600080fd5b8251600160201b81118282018810171561309b57600080fd5b82525081516020918201929091019080838360005b838110156130c85781810151838201526020016130b0565b50505050905090810190601f1680156130f55780820380516001836020036101000a031916815260200191505b50604052505050935093509350935061329a8460006002811061311457fe5b602002015184518b5160405186918f918e908e90602481019081906044018660e080838360005b8381101561315357818101518382015260200161313b565b5050505090500185600181111561316657fe5b81526020018460c080838360005b8381101561318c578181015183820152602001613174565b5050505090500180602001838103835288818151815260200191508051906020019080838360005b838110156131cc5781810151838201526020016131b4565b50505050905090810190601f1680156131f95780820380516001836020036101000a031916815260200191505b50838103825284518152845160209182019186019080838360005b8381101561322c578181015183820152602001613214565b50505050905090810190601f1680156132595780820380516001836020036101000a031916815260200191505b5060408051601f198184030181529190526020810180516001600160e01b03166001600160e01b0319909b169a909a17909952506158659650505050505050565b6132a357600080fd5b612f4784600160200201518460016020020151836040518060e001604052808f6003600781106132cf57fe5b602090810291909101516001600160a01b03168252018f6004602090810291909101516001600160a01b03168252018f6005602090810291909101516001600160a01b03168252018f6000602090810291909101516001600160a01b03168252018f6001602090810291909101516001600160a01b03168252018f6002602090810291909101516001600160a01b03168252018f600660200201516001600160a01b031690528d600160200201516040518e908d90602481019081906044018660e08083836000818101518382015260200161313b565b8251600090156133b557600080fd5b6133bd615c1c565b6133c5615c1c565b8880602001905160808110156133da57600080fd5b50805160408a810151929450840192506001600160a01b0391821691161461340157600080fd5b8651600090600181111561341157fe5b1461341b57600080fd5b613491858960015b602002015160808b01518460005b60209081029190910151604080516001600160a01b03958616602482015293909416604484015260648084019190915283518084039091018152608490920190925290810180516001600160e01b03166323b872dd60e01b179052615801565b61349a57600080fd5b602082015160a08901516001600160a01b039081169116146134bb57600080fd5b602087015160009060018111156134ce57fe5b146134d857600080fd5b608088015160208901516134f0918691846001613431565b6134f957600080fd5b50600198975050505050505050565b60008086806020019051604081101561352057600080fd5b50805160209091015190925090506001600160a01b03821686600260200201516001600160a01b03161461355357600080fd5b600085600181111561356157fe5b1461356b57600080fd5b6020868101516080880151604080516001600160a01b0393841660248201529290911660448301526064808301859052815180840390910181526084909201905290810180516001600160e01b03166323b872dd60e01b1790526135d0908490615801565b6135d957600080fd5b50505050505050565b60008060008780602001905160608110156135fc57600080fd5b508051602082015160409092015190945090925090506001600160a01b03831687600260200201516001600160a01b03161461363757600080fd5b600086600181111561364557fe5b1461364f57600080fd5b6020878101516080890151604080516001600160a01b039384166024820152929091166044830152606482018590526084820184905260a060a4830152600060c4830152805180830360e4018152610104909201905290810180516001600160e01b0316637921219560e11b1790526136c9908590615801565b6136d257600080fd5b5050505050505050565b8251600090156136eb57600080fd5b6136f3615c1c565b6136fb615c1c565b613703615c1c565b8980602001905160c081101561371857600080fd5b50805160408b810151929550850193506080850192506001600160a01b039182169116146137775760405162461bcd60e51b8152600401808060200182810382526038815260200180615e886038913960400191505060405180910390fd5b80516137b45760405162461bcd60e51b815260040180806020018281038252602d815260200180615f3b602d913960400191505060405180910390fd5b875160009060018111156137c457fe5b146138005760405162461bcd60e51b8152600401808060200182810382526023815260200180615cd16023913960400191505060405180910390fd5b613815868a60015b60200201518b6004612e98565b61381e57600080fd5b602083015160a08a01516001600160a01b039081169116146138715760405162461bcd60e51b815260040180806020018281038252603e815260200180615c5e603e913960400191505060405180910390fd5b60208101516138b15760405162461bcd60e51b815260040180806020018281038252602d815260200180615f68602d913960400191505060405180910390fd5b602088015160009060018111156138c457fe5b146139005760405162461bcd60e51b815260040180806020018281038252602a815260200180615e5e602a913960400191505060405180910390fd5b613914858a600460200201518b6001612f32565b61391d57600080fd5b5060019998505050505050505050565b60608060608089806020019051608081101561394857600080fd5b8101908080516040519392919084600160201b82111561396757600080fd5b90830190602082018581111561397c57600080fd5b82518660208202830111600160201b8211171561399857600080fd5b82525081516020918201928201910280838360005b838110156139c55781810151838201526020016139ad565b5050505090500160405260200180516040519392919084600160201b8211156139ed57600080fd5b908301906020820185811115613a0257600080fd5b82518660208202830111600160201b82111715613a1e57600080fd5b82525081516020918201928201910280838360005b83811015613a4b578181015183820152602001613a33565b5050505090500160405260200180516040519392919084600160201b821115613a7357600080fd5b908301906020820185811115613a8857600080fd5b82518660208202830111600160201b82111715613aa457600080fd5b82525081516020918201928201910280838360005b83811015613ad1578181015183820152602001613ab9565b5050505090500160405260200180516040519392919084600160201b821115613af957600080fd5b908301906020820185811115613b0e57600080fd5b8251600160201b811182820188101715613b2757600080fd5b82525081516020918201929091019080838360005b83811015613b54578181015183820152602001613b3c565b50505050905090810190601f168015613b815780820380516001836020036101000a031916815260200191505b5060405250505093509350935093508151845114613b9e57600080fd5b6000805b8551811015613ea6576060848281518110613bb957fe5b602002602001015167ffffffffffffffff81118015613bd757600080fd5b506040519080825280601f01601f191660200182016040528015613c02576020820181803683370190505b50905060005b858381518110613c1457fe5b6020026020010151811015613c6957848481518110613c2f57fe5b602001015160f81c60f81b828281518110613c4657fe5b60200101906001600160f81b031916908160001a90535060019384019301613c08565b50613e94878381518110613c7957fe5b6020026020010151878481518110613c8d57fe5b6020026020010151838f8f8f8f8f604051602401808060200187600760200280838360005b83811015613cca578181015183820152602001613cb2565b5050505090500186600260200280838360005b83811015613cf5578181015183820152602001613cdd565b5050505090500185600660200280838360005b83811015613d20578181015183820152602001613d08565b50505050905001806020018060200184810384528a818151815260200191508051906020019080838360005b83811015613d64578181015183820152602001613d4c565b50505050905090810190601f168015613d915780820380516001836020036101000a031916815260200191505b50848103835286518152865160209182019188019080838360005b83811015613dc4578181015183820152602001613dac565b50505050905090810190601f168015613df15780820380516001836020036101000a031916815260200191505b50848103825285518152855160209182019187019080838360005b83811015613e24578181015183820152602001613e0c565b50505050905090810190601f168015613e515780820380516001836020036101000a031916815260200191505b5060408051601f198184030181529190526020810180516001600160e01b03166001600160e01b0319909d169c909c17909b525061586598505050505050505050565b613e9d57600080fd5b50600101613ba2565b505050505050505050505050565b604080516004808252602482019092526020810180516001600160e01b0316637921219560e11b179052600091606091613eed916157ea565b855190915015613efc57600080fd5b613f04615c1c565b613f0c615c1c565b613f14615c1c565b8a80602001905160c0811015613f2957600080fd5b50805160408c810151929550850193506080850192506001600160a01b03918216911614613f885760405162461bcd60e51b8152600401808060200182810382526038815260200180615e886038913960400191505060405180910390fd5b88516000906001811115613f9857fe5b14612e6b5760405162461bcd60e51b8152600401808060200182810382526023815260200180615cd16023913960400191505060405180910390fd5b60019695505050505050565b604080516004808252602482019092526020810180516001600160e01b03166323b872dd60e01b179052600091606091614019916157ea565b85519091501561402857600080fd5b614030615c1c565b614038615c1c565b89806020019051608081101561404d57600080fd5b50805160408b810151929450840192506001600160a01b039182169116146140a65760405162461bcd60e51b8152600401808060200182810382526037815260200180615d8d6037913960400191505060405180910390fd5b875160009060018111156140b657fe5b146140f25760405162461bcd60e51b8152600401808060200182810382526022815260200180615e0f6022913960400191505060405180910390fd5b61410183612e7a8860046157ea565b61410a57600080fd5b600080600061411a89600461587b565b806020019051606081101561412e57600080fd5b508051602082015160409092015190945090925090508b600160200201516001600160a01b0316836001600160a01b03161461416957600080fd5b60808c01516001600160a01b0383811691161461418557600080fd5b8351811461419257600080fd5b602085015160a08d01516001600160a01b039081169116146141e55760405162461bcd60e51b815260040180806020018281038252603d815260200180615ec0603d913960400191505060405180910390fd5b60208b015160009060018111156141f857fe5b146142345760405162461bcd60e51b8152600401808060200182810382526029815260200180615cf46029913960400191505060405180910390fd5b61424386612e7a8a60046157ea565b61424c57600080fd5b600080600061425c8b600461587b565b806020019051606081101561427057600080fd5b508051602082015160409092015190945090925090508e600460200201516001600160a01b0316836001600160a01b0316146142ab57600080fd5b60208f01516001600160a01b038381169116146142c757600080fd5b602087015181146142d757600080fd5b5060019f9e505050505050505050505050505050565b60008360055b6020020151600101979650505050505050565b82516000901561431557600080fd5b61431d615c1c565b614325615c1c565b61432d615c1c565b8980602001905160c081101561434257600080fd5b50805160408b810151929550850193506080850192506001600160a01b039182169116146143a15760405162461bcd60e51b8152600401808060200182810382526038815260200180615d1d6038913960400191505060405180910390fd5b80516143de5760405162461bcd60e51b8152600401808060200182810382526035815260200180615c9c6035913960400191505060405180910390fd5b875160009060018111156143ee57fe5b1461442a5760405162461bcd60e51b8152600401808060200182810382526023815260200180615c3b6023913960400191505060405180910390fd5b614436868a6001613808565b61443f57600080fd5b602083015160a08a01516001600160a01b039081169116146144925760405162461bcd60e51b815260040180806020018281038252603e815260200180615efd603e913960400191505060405180910390fd5b60208101516144d25760405162461bcd60e51b815260040180806020018281038252602d815260200180615e31602d913960400191505060405180910390fd5b602088015160009060018111156144e557fe5b146139005760405162461bcd60e51b815260040180806020018281038252602a815260200180615dc4602a913960400191505060405180910390fd5b60608060608088806020019051608081101561453c57600080fd5b8101908080516040519392919084600160201b82111561455b57600080fd5b90830190602082018581111561457057600080fd5b82518660208202830111600160201b8211171561458c57600080fd5b82525081516020918201928201910280838360005b838110156145b95781810151838201526020016145a1565b5050505090500160405260200180516040519392919084600160201b8211156145e157600080fd5b9083019060208201858111156145f657600080fd5b82518660208202830111600160201b8211171561461257600080fd5b82525081516020918201928201910280838360005b8381101561463f578181015183820152602001614627565b5050505090500160405260200180516040519392919084600160201b82111561466757600080fd5b90830190602082018581111561467c57600080fd5b82518660208202830111600160201b8211171561469857600080fd5b82525081516020918201928201910280838360005b838110156146c55781810151838201526020016146ad565b5050505090500160405260200180516040519392919084600160201b8211156146ed57600080fd5b90830190602082018581111561470257600080fd5b8251600160201b81118282018810171561471b57600080fd5b82525081516020918201929091019080838360005b83811015614748578181015183820152602001614730565b50505050905090810190601f1680156147755780820380516001836020036101000a031916815260200191505b506040525050509350935093509350825184511461479257600080fd5b6060806060806147a389600461587b565b80602001905160808110156147b757600080fd5b8101908080516040519392919084600160201b8211156147d657600080fd5b9083019060208201858111156147eb57600080fd5b82518660208202830111600160201b8211171561480757600080fd5b82525081516020918201928201910280838360005b8381101561483457818101518382015260200161481c565b5050505090500160405260200180516040519392919084600160201b82111561485c57600080fd5b90830190602082018581111561487157600080fd5b82518660208202830111600160201b8211171561488d57600080fd5b82525081516020918201928201910280838360005b838110156148ba5781810151838201526020016148a2565b5050505090500160405260200180516040519392919084600160201b8211156148e257600080fd5b9083019060208201858111156148f757600080fd5b82518660208202830111600160201b8211171561491357600080fd5b82525081516020918201928201910280838360005b83811015614940578181015183820152602001614928565b5050505090500160405260200180516040519392919084600160201b82111561496857600080fd5b90830190602082018581111561497d57600080fd5b8251600160201b81118282018810171561499657600080fd5b82525081516020918201929091019080838360005b838110156149c35781810151838201526020016149ab565b50505050905090810190601f1680156149f05780820380516001836020036101000a031916815260200191505b5060405250506000549498509296509094509250506001600160a01b03168c600260200201516001600160a01b031614614a2957600080fd5b60018b6001811115614a3757fe5b14614a4157600080fd5b8351885114614a4f57600080fd5b60005b8851811015614a8357838181518110614a6757fe5b6020026020010151600014614a7b57600080fd5b600101614a52565b50614a958483838f8e8d8d8d8d61589f565b50505050505050505050505050565b5050505050565b825160009015614aba57600080fd5b614ac2615c1c565b614aca615c1c565b888060200190516080811015614adf57600080fd5b50805160408a810151929450840192506001600160a01b03918216911614614b385760405162461bcd60e51b8152600401808060200182810382526037815260200180615d8d6037913960400191505060405180910390fd5b86516000906001811115614b4857fe5b14614b845760405162461bcd60e51b8152600401808060200182810382526022815260200180615e0f6022913960400191505060405180910390fd5b614b9085896001613423565b614b9957600080fd5b602082015160a08901516001600160a01b03908116911614614bec5760405162461bcd60e51b815260040180806020018281038252603d815260200180615ec0603d913960400191505060405180910390fd5b60208701516000906001811115614bff57fe5b146134d85760405162461bcd60e51b8152600401808060200182810382526029815260200180615cf46029913960400191505060405180910390fd5b606080606080898060200190516080811015614c5657600080fd5b8101908080516040519392919084600160201b821115614c7557600080fd5b908301906020820185811115614c8a57600080fd5b82518660208202830111600160201b82111715614ca657600080fd5b82525081516020918201928201910280838360005b83811015614cd3578181015183820152602001614cbb565b5050505090500160405260200180516040519392919084600160201b821115614cfb57600080fd5b908301906020820185811115614d1057600080fd5b82518660208202830111600160201b82111715614d2c57600080fd5b82525081516020918201928201910280838360005b83811015614d59578181015183820152602001614d41565b5050505090500160405260200180516040519392919084600160201b821115614d8157600080fd5b908301906020820185811115614d9657600080fd5b82518660208202830111600160201b82111715614db257600080fd5b82525081516020918201928201910280838360005b83811015614ddf578181015183820152602001614dc7565b5050505090500160405260200180516040519392919084600160201b821115614e0757600080fd5b908301906020820185811115614e1c57600080fd5b8251600160201b811182820188101715614e3557600080fd5b82525081516020918201929091019080838360005b83811015614e62578181015183820152602001614e4a565b50505050905090810190601f168015614e8f5780820380516001836020036101000a031916815260200191505b5060405250505093509350935093508151845114614ede5760405162461bcd60e51b8152600401808060200182810382526038815260200180615d556038913960400191505060405180910390fd5b6000805b8551811015614fd3576060848281518110614ef957fe5b602002602001015167ffffffffffffffff81118015614f1757600080fd5b506040519080825280601f01601f191660200182016040528015614f42576020820181803683370190505b50905060005b858381518110614f5457fe5b6020026020010151811015614fa957848481518110614f6f57fe5b602001015160f81c60f81b828281518110614f8657fe5b60200101906001600160f81b031916908160001a90535060019384019301614f48565b50614fb9878381518110613c7957fe5b15614fca575050505050505061501d565b50600101614ee2565b506040805162461bcd60e51b8152602060048201526019602482015278139bc81cdd185d1a58c818d85b1b1cc81cdd58d8d959591959603a1b604482015290519081900360640190fd5b505050505050565b6000615035878787878787612f70565b508360056142f3565b60009695505050505050565b60608060608088806020019051608081101561506557600080fd5b8101908080516040519392919084600160201b82111561508457600080fd5b90830190602082018581111561509957600080fd5b82518660208202830111600160201b821117156150b557600080fd5b82525081516020918201928201910280838360005b838110156150e25781810151838201526020016150ca565b5050505090500160405260200180516040519392919084600160201b82111561510a57600080fd5b90830190602082018581111561511f57600080fd5b82518660208202830111600160201b8211171561513b57600080fd5b82525081516020918201928201910280838360005b83811015615168578181015183820152602001615150565b5050505090500160405260200180516040519392919084600160201b82111561519057600080fd5b9083019060208201858111156151a557600080fd5b82518660208202830111600160201b821117156151c157600080fd5b82525081516020918201928201910280838360005b838110156151ee5781810151838201526020016151d6565b5050505090500160405260200180516040519392919084600160201b82111561521657600080fd5b90830190602082018581111561522b57600080fd5b8251600160201b81118282018810171561524457600080fd5b82525081516020918201929091019080838360005b83811015615271578181015183820152602001615259565b50505050905090810190601f16801561529e5780820380516001836020036101000a031916815260200191505b50604052505050935093509350935082518451146152bb57600080fd5b6060806060806152cc89600461587b565b80602001905160808110156152e057600080fd5b8101908080516040519392919084600160201b8211156152ff57600080fd5b90830190602082018581111561531457600080fd5b82518660208202830111600160201b8211171561533057600080fd5b82525081516020918201928201910280838360005b8381101561535d578181015183820152602001615345565b5050505090500160405260200180516040519392919084600160201b82111561538557600080fd5b90830190602082018581111561539a57600080fd5b82518660208202830111600160201b821117156153b657600080fd5b82525081516020918201928201910280838360005b838110156153e35781810151838201526020016153cb565b5050505090500160405260200180516040519392919084600160201b82111561540b57600080fd5b90830190602082018581111561542057600080fd5b82518660208202830111600160201b8211171561543c57600080fd5b82525081516020918201928201910280838360005b83811015615469578181015183820152602001615451565b5050505090500160405260200180516040519392919084600160201b82111561549157600080fd5b9083019060208201858111156154a657600080fd5b8251600160201b8111828201881017156154bf57600080fd5b82525081516020918201929091019080838360005b838110156154ec5781810151838201526020016154d4565b50505050905090810190601f1680156155195780820380516001836020036101000a031916815260200191505b5060405250506000549498509296509094509250506001600160a01b03168c600260200201516001600160a01b03161461555257600080fd5b60018b600181111561556057fe5b1461556a57600080fd5b83518851111561557957600080fd5b60005b8851811015614a835783818151811061559157fe5b60200260200101516000146155a557600080fd5b60010161557c565b604080516004808252602482019092526020810180516001600160e01b03166323b872dd60e01b1790526000916060916155e6916157ea565b8551909150156155f557600080fd5b6155fd615c1c565b615605615c1c565b89806020019051608081101561561a57600080fd5b50805160408b810151929450840192506001600160a01b0391821691161461564157600080fd5b8751600090600181111561565157fe5b1461565b57600080fd5b61566a83612e7a8860046157ea565b61567357600080fd5b600080600061568389600461587b565b806020019051606081101561569757600080fd5b508051602082015160409092015190945090925090508b600160200201516001600160a01b0316836001600160a01b0316146156d257600080fd5b60808c01516001600160a01b038381169116146156ee57600080fd5b602085015160a08d01516001600160a01b0390811691161461570f57600080fd5b60208b0151600090600181111561572257fe5b1461572c57600080fd5b61573b86612e7a8a60046157ea565b61574457600080fd5b60008060006157548b600461587b565b806020019051606081101561576857600080fd5b508051602082015160409092015190945090925090508e600460200201516001600160a01b0316836001600160a01b0316146157a357600080fd5b60208f01516001600160a01b038381169116146157bf57600080fd5b6157d1848860005b6020020151615af7565b6157dd828960016157c7565b10156142d757600080fd5b565b60606157f883600084615b50565b90505b92915050565b81518151600091600191811480831461581d576000925061585b565b600160208701838101602088015b60028483851001141561585657805183511461584a5760009650600093505b6020928301920161582b565b505050505b5090949350505050565b600080604051835160208501865afa9392505050565b6060600061588a845184615bbf565b9050615897848483615b50565b949350505050565b60008060005b8651811015615adc5760608682815181106158bc57fe5b602002602001015167ffffffffffffffff811180156158da57600080fd5b506040519080825280601f01601f191660200182016040528015615905576020820181803683370190505b50905060005b87838151811061591757fe5b602002602001015181101561596c5785858151811061593257fe5b602001015160f81c60f81b82828151811061594957fe5b60200101906001600160f81b031916908160001a9053506001948501940161590b565b5060608c838151811061597b57fe5b602002602001015167ffffffffffffffff8111801561599957600080fd5b506040519080825280601f01601f1916602001820160405280156159c4576020820181803683370190505b50905060005b8d84815181106159d657fe5b6020026020010151811015615a2b578c85815181106159f157fe5b602001015160f81c60f81b828281518110615a0857fe5b60200101906001600160f81b031916908160001a905350600194850194016159ca565b508d8381518110615a3857fe5b60200260200101518b600260078110615a4d57fe5b60200201906001600160a01b031690816001600160a01b031681525050615ac9898481518110615a7957fe5b6020026020010151888581518110615a8d57fe5b6020026020010151848e60008f87604051602401808060200186600760200280838360008381101561315357818101518382015260200161313b565b615ad257600080fd5b50506001016158a5565b5082518214615aea57600080fd5b5050505050505050505050565b600082615b06575060006157fb565b82820282848281615b1357fe5b04146157f85760405162461bcd60e51b8152600401808060200182810382526021815260200180615dee6021913960400191505060405180910390fd5b60608082158015615b6c57604051915060208201604052615bb6565b6040519150601f8416801560200281840101858101878315602002848b0101015b81831015615ba5578051835260209283019201615b8d565b5050858452601f01601f1916604052505b50949350505050565b600082821115615c16576040805162461bcd60e51b815260206004820152601e60248201527f536166654d6174683a207375627472616374696f6e206f766572666c6f770000604482015290519081900360640190fd5b50900390565b6040518060400160405280600290602082028036833750919291505056fe455243333532353a2063616c6c206d7573742062652061206469726563742063616c6c455243313135353a20636f756e74657263616c6c20746172676574206d75737420657175616c2061646472657373206f6620746f6b656e20746f20676574455243333532353a2067697665207472616e736665722076616c7565206d757374206265206c6172676572207468616e207a65726f455243313135353a2063616c6c206d7573742062652061206469726563742063616c6c4552433732313a20636f756e74657263616c6c206d7573742062652061206469726563742063616c6c455243333532353a2063616c6c20746172676574206d75737420657175616c2061646472657373206f6620746f6b656e20746f2067697665446966666572656e74206e756d626572206f66207374617469632063616c6c2061646472657373657320616e6420657874726164617461734552433732313a2063616c6c20746172676574206d75737420657175616c2061646472657373206f6620746f6b656e20746f2067697665455243333532353a20636f756e74657263616c6c206d7573742062652061206469726563742063616c6c536166654d6174683a206d756c7469706c69636174696f6e206f766572666c6f774552433732313a2063616c6c206d7573742062652061206469726563742063616c6c455243333532353a2074616b6520616d6f756e74206d757374206265206c6172676572207468616e207a65726f455243313135353a20636f756e74657263616c6c206d7573742062652061206469726563742063616c6c455243313135353a2063616c6c20746172676574206d75737420657175616c2061646472657373206f6620746f6b656e20746f20676976654552433732313a20636f756e74657263616c6c20746172676574206d75737420657175616c2061646472657373206f6620746f6b656e20746f20676574455243333532353a20636f756e74657263616c6c20746172676574206d75737420657175616c2061646472657373206f6620746f6b656e20746f20676574455243313135353a206769766520616d6f756e74206d757374206265206c6172676572207468616e207a65726f455243313135353a2074616b6520616d6f756e74206d757374206265206c6172676572207468616e207a65726fa26469706673582212207333be81014e1e59601a6e7368e212c17a08163d492fd2a94723a270a1abede364736f6c63430007050033",
  "devdoc": {
    "author": "Wyvern Protocol Developers",
    "kind": "dev",
    "methods": {},
    "title": "WyvernStatic",
    "version": 1
  },
  "userdoc": {
    "kind": "user",
    "methods": {},
    "version": 1
  },
  "storageLayout": {
    "storage": [
      {
        "astId": 7319,
        "contract": "contracts/WyvernStatic.sol:WyvernStatic",
        "label": "atomicizer",
        "offset": 0,
        "slot": "0",
        "type": "t_address"
      }
    ],
    "types": {
      "t_address": {
        "encoding": "inplace",
        "label": "address",
        "numberOfBytes": "20"
      }
    }
  }
}