{
  "address": "0xac00E59f210741f643c496c58467Fadb390D25D5",
  "abi": [
    {
      "inputs": [],
      "stateMutability": "nonpayable",
      "type": "constructor"
    },
    {
      "inputs": [
        {
          "internalType": "bytes",
          "name": "extra",
          "type": "bytes"
        },
        {
          "internalType": "address[7]",
          "name": "addresses",
          "type": "address[7]"
        },
        {
          "internalType": "enum AuthenticatedProxy.HowToCall[2]",
          "name": "howToCalls",
          "type": "uint8[2]"
        },
        {
          "internalType": "uint256[6]",
          "name": "uints",
          "type": "uint256[6]"
        },
        {
          "internalType": "bytes",
          "name": "data",
          "type": "bytes"
        },
        {
          "internalType": "bytes",
          "name": "counterdata",
          "type": "bytes"
        }
      ],
      "name": "ERC20ForERC721",
      "outputs": [
        {
          "internalType": "uint256",
          "name": "",
          "type": "uint256"
        }
      ],
      "stateMutability": "pure",
      "type": "function"
    },
    {
      "inputs": [
        {
          "internalType": "bytes",
          "name": "extra",
          "type": "bytes"
        },
        {
          "internalType": "address[7]",
          "name": "addresses",
          "type": "address[7]"
        },
        {
          "internalType": "enum AuthenticatedProxy.HowToCall[2]",
          "name": "howToCalls",
          "type": "uint8[2]"
        },
        {
          "internalType": "uint256[6]",
          "name": "uints",
          "type": "uint256[6]"
        },
        {
          "internalType": "bytes",
          "name": "data",
          "type": "bytes"
        },
        {
          "internalType": "bytes",
          "name": "counterdata",
          "type": "bytes"
        }
      ],
      "name": "ERC721ForERC20",
      "outputs": [
        {
          "internalType": "uint256",
          "name": "",
          "type": "uint256"
        }
      ],
      "stateMutability": "pure",
      "type": "function"
    },
    {
      "inputs": [
        {
          "internalType": "bytes",
          "name": "extra",
          "type": "bytes"
        },
        {
          "internalType": "address[7]",
          "name": "addresses",
          "type": "address[7]"
        },
        {
          "internalType": "enum AuthenticatedProxy.HowToCall[2]",
          "name": "howToCalls",
          "type": "uint8[2]"
        },
        {
          "internalType": "uint256[6]",
          "name": "uints",
          "type": "uint256[6]"
        },
        {
          "internalType": "bytes",
          "name": "data",
          "type": "bytes"
        },
        {
          "internalType": "bytes",
          "name": "counterdata",
          "type": "bytes"
        }
      ],
      "name": "anyERC1155ForERC20",
      "outputs": [
        {
          "internalType": "uint256",
          "name": "",
          "type": "uint256"
        }
      ],
      "stateMutability": "pure",
      "type": "function"
    },
    {
      "inputs": [
        {
          "internalType": "bytes",
          "name": "extra",
          "type": "bytes"
        },
        {
          "internalType": "address[7]",
          "name": "addresses",
          "type": "address[7]"
        },
        {
          "internalType": "enum AuthenticatedProxy.HowToCall[2]",
          "name": "howToCalls",
          "type": "uint8[2]"
        },
        {
          "internalType": "uint256[6]",
          "name": "uints",
          "type": "uint256[6]"
        },
        {
          "internalType": "bytes",
          "name": "data",
          "type": "bytes"
        },
        {
          "internalType": "bytes",
          "name": "counterdata",
          "type": "bytes"
        }
      ],
      "name": "anyERC20ForERC1155",
      "outputs": [
        {
          "internalType": "uint256",
          "name": "",
          "type": "uint256"
        }
      ],
      "stateMutability": "pure",
      "type": "function"
    },
    {
      "inputs": [
        {
          "internalType": "bytes",
          "name": "extra",
          "type": "bytes"
        },
        {
          "internalType": "address[7]",
          "name": "addresses",
          "type": "address[7]"
        },
        {
          "internalType": "enum AuthenticatedProxy.HowToCall[2]",
          "name": "howToCalls",
          "type": "uint8[2]"
        },
        {
          "internalType": "uint256[6]",
          "name": "uints",
          "type": "uint256[6]"
        },
        {
          "internalType": "bytes",
          "name": "data",
          "type": "bytes"
        },
        {
          "internalType": "bytes",
          "name": "counterdata",
          "type": "bytes"
        }
      ],
      "name": "anyERC20ForERC20",
      "outputs": [
        {
          "internalType": "uint256",
          "name": "",
          "type": "uint256"
        }
      ],
      "stateMutability": "pure",
      "type": "function"
    },
    {
      "inputs": [
        {
          "internalType": "bytes",
          "name": "extra",
          "type": "bytes"
        },
        {
          "internalType": "address[7]",
          "name": "addresses",
          "type": "address[7]"
        },
        {
          "internalType": "enum AuthenticatedProxy.HowToCall[2]",
          "name": "howToCalls",
          "type": "uint8[2]"
        },
        {
          "internalType": "uint256[6]",
          "name": "uints",
          "type": "uint256[6]"
        },
        {
          "internalType": "bytes",
          "name": "data",
          "type": "bytes"
        },
        {
          "internalType": "bytes",
          "name": "counterdata",
          "type": "bytes"
        }
      ],
      "name": "anyERC20ForERC3525",
      "outputs": [
        {
          "internalType": "uint256",
          "name": "",
          "type": "uint256"
        }
      ],
      "stateMutability": "pure",
      "type": "function"
    },
    {
      "inputs": [
        {
          "internalType": "bytes",
          "name": "extra",
          "type": "bytes"
        },
        {
          "internalType": "address[7]",
          "name": "addresses",
          "type": "address[7]"
        },
        {
          "internalType": "enum AuthenticatedProxy.HowToCall[2]",
          "name": "howToCalls",
          "type": "uint8[2]"
        },
        {
          "internalType": "uint256[6]",
          "name": "uints",
          "type": "uint256[6]"
        },
        {
          "internalType": "bytes",
          "name": "data",
          "type": "bytes"
        },
        {
          "internalType": "bytes",
          "name": "counterdata",
          "type": "bytes"
        }
      ],
      "name": "anyERC3525ForERC20",
      "outputs": [
        {
          "internalType": "uint256",
          "name": "",
          "type": "uint256"
        }
      ],
      "stateMutability": "pure",
      "type": "function"
    },
    {
      "inputs": [],
      "name": "name",
      "outputs": [
        {
          "internalType": "string",
          "name": "",
          "type": "string"
        }
      ],
      "stateMutability": "view",
      "type": "function"
    }
  ],
  "transactionHash": "0xe097e7922e6f37363283777bceb95b895c726c11b2038a34eaafd280ef80bdbd",
  "args": [],
  "numDeployments": 1,
  "solcInputHash": "16b5affbeef835c958ef2ce33ace187b",
  "bytecode": "0x608060405234801561001057600080fd5b50612eeb806100206000396000f3fe608060405234801561001057600080fd5b50600436106100785760003560e01c806306fdde031461007d5780631033dc82146100fa57806323b047891461033c57806337738d081461056c5780637a7f30e01461079c578063a6139b58146109cc578063b9845b9514610bfc578063c3d3626a14610e2c575b600080fd5b61008561105c565b6040805160208082528351818301528351919283929083019185019080838360005b838110156100bf5781810151838201526020016100a7565b50505050905090810190601f1680156100ec5780820380516001836020036101000a031916815260200191505b509250505060405180910390f35b61032a600480360361024081101561011157600080fd5b810190602081018135600160201b81111561012b57600080fd5b82018360208201111561013d57600080fd5b803590602001918460018302840111600160201b8311171561015e57600080fd5b91908080601f016020809104026020016040519081016040528093929190818152602001838380828437600092019190915250506040805160e081810190925293969594818101949350915060079083908390808284376000920191909152505060408051808201825292959493818101939250906002908390839080828437600092019190915250506040805160c08181019092529295949381810193925090600690839083908082843760009201919091525091949392602081019250359050600160201b81111561023157600080fd5b82018360208201111561024357600080fd5b803590602001918460018302840111600160201b8311171561026457600080fd5b91908080601f0160208091040260200160405190810160405280939291908181526020018383808284376000920191909152509295949360208101935035915050600160201b8111156102b657600080fd5b8201836020820111156102c857600080fd5b803590602001918460018302840111600160201b831117156102e957600080fd5b91908080601f016020809104026020016040519081016040528093929190818152602001838380828437600092019190915250929550611085945050505050565b60408051918252519081900360200190f35b61032a600480360361024081101561035357600080fd5b810190602081018135600160201b81111561036d57600080fd5b82018360208201111561037f57600080fd5b803590602001918460018302840111600160201b831117156103a057600080fd5b91908080601f016020809104026020016040519081016040528093929190818152602001838380828437600092019190915250506040805160e081810190925293969594818101949350915060079083908390808284376000920191909152505060408051808201825292959493818101939250906002908390839080828437600092019190915250506040805160c08181019092529295949381810193925090600690839083908082843760009201919091525091949392602081019250359050600160201b81111561047357600080fd5b82018360208201111561048557600080fd5b803590602001918460018302840111600160201b831117156104a657600080fd5b91908080601f0160208091040260200160405190810160405280939291908181526020018383808284376000920191909152509295949360208101935035915050600160201b8111156104f857600080fd5b82018360208201111561050a57600080fd5b803590602001918460018302840111600160201b8311171561052b57600080fd5b91908080601f0160208091040260200160405190810160405280939291908181526020018383808284376000920191909152509295506113c7945050505050565b61032a600480360361024081101561058357600080fd5b810190602081018135600160201b81111561059d57600080fd5b8201836020820111156105af57600080fd5b803590602001918460018302840111600160201b831117156105d057600080fd5b91908080601f016020809104026020016040519081016040528093929190818152602001838380828437600092019190915250506040805160e081810190925293969594818101949350915060079083908390808284376000920191909152505060408051808201825292959493818101939250906002908390839080828437600092019190915250506040805160c08181019092529295949381810193925090600690839083908082843760009201919091525091949392602081019250359050600160201b8111156106a357600080fd5b8201836020820111156106b557600080fd5b803590602001918460018302840111600160201b831117156106d657600080fd5b91908080601f0160208091040260200160405190810160405280939291908181526020018383808284376000920191909152509295949360208101935035915050600160201b81111561072857600080fd5b82018360208201111561073a57600080fd5b803590602001918460018302840111600160201b8311171561075b57600080fd5b91908080601f016020809104026020016040519081016040528093929190818152602001838380828437600092019190915250929550611693945050505050565b61032a60048036036102408110156107b357600080fd5b810190602081018135600160201b8111156107cd57600080fd5b8201836020820111156107df57600080fd5b803590602001918460018302840111600160201b8311171561080057600080fd5b91908080601f016020809104026020016040519081016040528093929190818152602001838380828437600092019190915250506040805160e081810190925293969594818101949350915060079083908390808284376000920191909152505060408051808201825292959493818101939250906002908390839080828437600092019190915250506040805160c08181019092529295949381810193925090600690839083908082843760009201919091525091949392602081019250359050600160201b8111156108d357600080fd5b8201836020820111156108e557600080fd5b803590602001918460018302840111600160201b8311171561090657600080fd5b91908080601f0160208091040260200160405190810160405280939291908181526020018383808284376000920191909152509295949360208101935035915050600160201b81111561095857600080fd5b82018360208201111561096a57600080fd5b803590602001918460018302840111600160201b8311171561098b57600080fd5b91908080601f0160208091040260200160405190810160405280939291908181526020018383808284376000920191909152509295506119a2945050505050565b61032a60048036036102408110156109e357600080fd5b810190602081018135600160201b8111156109fd57600080fd5b820183602082011115610a0f57600080fd5b803590602001918460018302840111600160201b83111715610a3057600080fd5b91908080601f016020809104026020016040519081016040528093929190818152602001838380828437600092019190915250506040805160e081810190925293969594818101949350915060079083908390808284376000920191909152505060408051808201825292959493818101939250906002908390839080828437600092019190915250506040805160c08181019092529295949381810193925090600690839083908082843760009201919091525091949392602081019250359050600160201b811115610b0357600080fd5b820183602082011115610b1557600080fd5b803590602001918460018302840111600160201b83111715610b3657600080fd5b91908080601f0160208091040260200160405190810160405280939291908181526020018383808284376000920191909152509295949360208101935035915050600160201b811115610b8857600080fd5b820183602082011115610b9a57600080fd5b803590602001918460018302840111600160201b83111715610bbb57600080fd5b91908080601f016020809104026020016040519081016040528093929190818152602001838380828437600092019190915250929550611c6e945050505050565b61032a6004803603610240811015610c1357600080fd5b810190602081018135600160201b811115610c2d57600080fd5b820183602082011115610c3f57600080fd5b803590602001918460018302840111600160201b83111715610c6057600080fd5b91908080601f016020809104026020016040519081016040528093929190818152602001838380828437600092019190915250506040805160e081810190925293969594818101949350915060079083908390808284376000920191909152505060408051808201825292959493818101939250906002908390839080828437600092019190915250506040805160c08181019092529295949381810193925090600690839083908082843760009201919091525091949392602081019250359050600160201b811115610d3357600080fd5b820183602082011115610d4557600080fd5b803590602001918460018302840111600160201b83111715610d6657600080fd5b91908080601f0160208091040260200160405190810160405280939291908181526020018383808284376000920191909152509295949360208101935035915050600160201b811115610db857600080fd5b820183602082011115610dca57600080fd5b803590602001918460018302840111600160201b83111715610deb57600080fd5b91908080601f016020809104026020016040519081016040528093929190818152602001838380828437600092019190915250929550611e5a945050505050565b61032a6004803603610240811015610e4357600080fd5b810190602081018135600160201b811115610e5d57600080fd5b820183602082011115610e6f57600080fd5b803590602001918460018302840111600160201b83111715610e9057600080fd5b91908080601f016020809104026020016040519081016040528093929190818152602001838380828437600092019190915250506040805160e081810190925293969594818101949350915060079083908390808284376000920191909152505060408051808201825292959493818101939250906002908390839080828437600092019190915250506040805160c08181019092529295949381810193925090600690839083908082843760009201919091525091949392602081019250359050600160201b811115610f6357600080fd5b820183602082011115610f7557600080fd5b803590602001918460018302840111600160201b83111715610f9657600080fd5b91908080601f0160208091040260200160405190810160405280939291908181526020018383808284376000920191909152509295949360208101935035915050600160201b811115610fe857600080fd5b820183602082011115610ffa57600080fd5b803590602001918460018302840111600160201b8311171561101b57600080fd5b91908080601f016020809104026020016040519081016040528093929190818152602001838380828437600092019190915250929550612137945050505050565b6040518060400160405280600d81526020016c14dd185d1a58c813585c9ad95d609a1b81525081565b8251600090156110c65760405162461bcd60e51b8152600401808060200182810382526027815260200180612b786027913960400191505060405180910390fd5b845160009060018111156110d657fe5b146111125760405162461bcd60e51b815260040180806020018281038252602e815260200180612cc9602e913960400191505060405180910390fd5b61111a6125b6565b6111226125d4565b8880602001905160a081101561113757600080fd5b509150506040810160008160016020020151116111855760405162461bcd60e51b8152600401808060200182810382526036815260200180612c506036913960400191505060405180910390fd5b60408101516111c55760405162461bcd60e51b8152600401808060200182810382526038815260200180612d1e6038913960400191505060405180910390fd5b815160408901516001600160a01b039081169116146112155760405162461bcd60e51b8152600401808060200182810382526043815260200180612c866043913960600191505060405180910390fd5b602082015160a08901516001600160a01b039081169116146112685760405162461bcd60e51b8152600401808060200182810382526049815260200180612dee6049913960600191505060405180910390fd5b6112706125b6565b604051806040016040528061128488612302565b81526020016112928761232f565b9052905060006112b28860055b60200201518360005b602002015161233f565b60208901519091508111156112f85760405162461bcd60e51b8152600401808060200182810382526031815260200180612bd06031913960400191505060405180910390fd5b6113128360025b60200201518360005b60200201516123a2565b6113268460015b6020020151846001611308565b14611378576040805162461bcd60e51b815260206004820152601f60248201527f616e7945524333353235466f7245524332303a2077726f6e6720726174696f00604482015290519081900360640190fd5b611396878b600160200201518c60045b6020020151865186516123fb565b6113b9868b600460200201518c60015b60200201518560015b602002015161247a565b9a9950505050505050505050565b8251600090156114085760405162461bcd60e51b8152600401808060200182810382526027815260200180612dc76027913960400191505060405180910390fd5b8451600090600181111561141857fe5b146114545760405162461bcd60e51b815260040180806020018281038252602e815260200180612819602e913960400191505060405180910390fd5b61145c6125b6565b6114646125d4565b8880602001905160a081101561147957600080fd5b509150506040810160008160016020020151116114c75760405162461bcd60e51b81526004018080602001828103825260368152602001806126826036913960400191505060405180910390fd5b60408101516115075760405162461bcd60e51b81526004018080602001828103825260388152602001806128d76038913960400191505060405180910390fd5b815160408901516001600160a01b039081169116146115575760405162461bcd60e51b8152600401808060200182810382526043815260200180612d566043913960600191505060405180910390fd5b602082015160a08901516001600160a01b039081169116146115aa5760405162461bcd60e51b81526004018080602001828103825260498152602001806127216049913960600191505060405180910390fd5b6115b26125b6565b60405180604001604052806115c688612302565b81526020016115d48761232f565b9052905060006115e588600561129f565b602089015190915081111561162b5760405162461bcd60e51b81526004018080602001828103825260318152602001806127966031913960400191505060405180910390fd5b6116368360026112ff565b611641846001611319565b14611378576040805162461bcd60e51b815260206004820152601f60248201527f616e7945524331313535466f7245524332303a2077726f6e6720726174696f00604482015290519081900360640190fd5b8251600090156116d45760405162461bcd60e51b81526004018080602001828103825260278152602001806128b06027913960400191505060405180910390fd5b845160009060018111156116e457fe5b146117205760405162461bcd60e51b815260040180806020018281038252602e815260200180612d99602e913960400191505060405180910390fd5b6117286125b6565b6117306125d4565b8880602001905160a081101561174557600080fd5b509150506040810160008160016020020151116117935760405162461bcd60e51b8152600401808060200182810382526036815260200180612c506036913960400191505060405180910390fd5b60408101516117d35760405162461bcd60e51b8152600401808060200182810382526038815260200180612d1e6038913960400191505060405180910390fd5b815160408901516001600160a01b039081169116146118235760405162461bcd60e51b8152600401808060200182810382526042815260200180612ad36042913960600191505060405180910390fd5b602082015160a08901516001600160a01b039081169116146118765760405162461bcd60e51b815260040180806020018281038252604a815260200180612638604a913960600191505060405180910390fd5b61187e6125b6565b604051806040016040528061189287612302565b81526020016118a08861232f565b9052905060006118ba8860055b60200201518360016112a8565b60208901519091508111156119005760405162461bcd60e51b815260040180806020018281038252603181526020018061290f6031913960400191505060405180910390fd5b6119148360025b6020020151836001611308565b6119288460015b6020020151846000611308565b1461197a576040805162461bcd60e51b815260206004820152601f60248201527f616e794552433230466f72455243333532353a2077726f6e6720726174696f00604482015290519081900360640190fd5b61198e868b600460200201518c6001611388565b6113b9878b600160200201518c60046113a6565b8251600090156119e35760405162461bcd60e51b8152600401808060200182810382526027815260200180612cf76027913960400191505060405180910390fd5b845160009060018111156119f357fe5b14611a2f5760405162461bcd60e51b815260040180806020018281038252602e8152602001806129c6602e913960400191505060405180910390fd5b611a376125b6565b611a3f6125d4565b8880602001905160a0811015611a5457600080fd5b50915050604081016000816001602002015111611aa25760405162461bcd60e51b81526004018080602001828103825260368152602001806126826036913960400191505060405180910390fd5b6040810151611ae25760405162461bcd60e51b81526004018080602001828103825260388152602001806128d76038913960400191505060405180910390fd5b815160408901516001600160a01b03908116911614611b325760405162461bcd60e51b8152600401808060200182810382526042815260200180612b156042913960600191505060405180910390fd5b602082015160a08901516001600160a01b03908116911614611b855760405162461bcd60e51b815260040180806020018281038252604a815260200180612e6c604a913960600191505060405180910390fd5b611b8d6125b6565b6040518060400160405280611ba187612302565b8152602001611baf8861232f565b905290506000611bc08860056118ad565b6020890151909150811115611c065760405162461bcd60e51b8152600401808060200182810382526031815260200180612b9f6031913960400191505060405180910390fd5b611c11836002611907565b611c1c84600161191b565b1461197a576040805162461bcd60e51b815260206004820152601f60248201527f616e794552433230466f72455243313135353a2077726f6e6720726174696f00604482015290519081900360640190fd5b825160009015611caf5760405162461bcd60e51b8152600401808060200182810382526023815260200180612ab06023913960400191505060405180910390fd5b84516000906001811115611cbf57fe5b14611cfb5760405162461bcd60e51b815260040180806020018281038252602a8152602001806126b8602a913960400191505060405180910390fd5b611d036125b6565b611d0b6125b6565b888060200190516080811015611d2057600080fd5b50915050604081016000816001602002015111611d6e5760405162461bcd60e51b815260040180806020018281038252603581526020018061287b6035913960400191505060405180910390fd5b815160408901516001600160a01b03908116911614611dbe5760405162461bcd60e51b815260040180806020018281038252603f8152602001806126e2603f913960400191505060405180910390fd5b602082015160a08901516001600160a01b03908116911614611e115760405162461bcd60e51b81526004018080602001828103825260458152602001806129f46045913960600191505060405180910390fd5b611e2e8489600460200201518a60015b60200201518460006113af565b611e4b8589600160200201518a60045b60200201518460016113af565b50600198975050505050505050565b825160009015611e9b5760405162461bcd60e51b8152600401808060200182810382526025815260200180612c2b6025913960400191505060405180910390fd5b84516000906001811115611eab57fe5b14611ee75760405162461bcd60e51b815260040180806020018281038252602c81526020018061276a602c913960400191505060405180910390fd5b611eef6125b6565b611ef76125b6565b888060200190516080811015611f0c57600080fd5b506040810180519193509150611f535760405162461bcd60e51b81526004018080602001828103825260348152602001806128476034913960400191505060405180910390fd5b6020810151611f935760405162461bcd60e51b8152600401808060200182810382526036815260200180612a7a6036913960400191505060405180910390fd5b815160408901516001600160a01b03908116911614611fe35760405162461bcd60e51b8152600401808060200182810382526041815260200180612a396041913960600191505060405180910390fd5b602082015160a08901516001600160a01b039081169116146120365760405162461bcd60e51b815260040180806020018281038252604781526020018061297f6047913960600191505060405180910390fd5b61203e6125b6565b60405180604001604052806120528861232f565b81526020016120608761232f565b90529050600061207188600561129f565b60208901519091508111156120b75760405162461bcd60e51b815260040180806020018281038252602f8152602001806127c7602f913960400191505060405180910390fd5b6120c2836001611907565b6120cd84600061191b565b1461211f576040805162461bcd60e51b815260206004820152601d60248201527f616e794552433230466f7245524332303a2077726f6e6720726174696f000000604482015290519081900360640190fd5b60208a015160808b01516113969189918560006113af565b8251600090156121785760405162461bcd60e51b81526004018080602001828103825260238152602001806127f66023913960400191505060405180910390fd5b8451600090600181111561218857fe5b146121c45760405162461bcd60e51b815260040180806020018281038252602a815260200180612c01602a913960400191505060405180910390fd5b6121cc6125b6565b6121d46125b6565b8880602001905160808110156121e957600080fd5b509150506040810160008160016020020151116122375760405162461bcd60e51b8152600401808060200182810382526035815260200180612e376035913960400191505060405180910390fd5b815160408901516001600160a01b039081169116146122875760405162461bcd60e51b815260040180806020018281038252603f815260200180612940603f913960400191505060405180910390fd5b602082015160a08901516001600160a01b039081169116146122da5760405162461bcd60e51b81526004018080602001828103825260458152602001806125f36045913960600191505060405180910390fd5b6122ee8589600160200201518a6004611e21565b611e4b8489600460200201518a6001611e3e565b60008061231283606460206124e3565b806020019051602081101561232657600080fd5b50519392505050565b60008061231283604460206124e3565b600082820183811015612399576040805162461bcd60e51b815260206004820152601b60248201527f536166654d6174683a206164646974696f6e206f766572666c6f770000000000604482015290519081900360640190fd5b90505b92915050565b6000826123b15750600061239c565b828202828482816123be57fe5b04146123995760405162461bcd60e51b8152600401808060200182810382526021815260200180612b576021913960400191505060405180910390fd5b604080516001600160a01b03808716602483015285166044820152606481018490526084810183905260a060a4820152600060c4820152815180820360e40181526101049091019091526020810180516001600160e01b0316637921219560e11b17905261246a908690612552565b61247357600080fd5b5050505050565b604080516001600160a01b0380861660248301528416604482015260648082018490528251808303909101815260849091019091526020810180516001600160e01b03166323b872dd60e01b1790526124d4908590612552565b6124dd57600080fd5b50505050565b606080821580156124ff57604051915060208201604052612549565b6040519150601f8416801560200281840101858101878315602002848b0101015b81831015612538578051835260209283019201612520565b5050858452601f01601f1916604052505b50949350505050565b81518151600091600191811480831461256e57600092506125ac565b600160208701838101602088015b6002848385100114156125a757805183511461259b5760009650600093505b6020928301920161257c565b505050505b5090949350505050565b60405180604001604052806002906020820280368337509192915050565b6040518060600160405280600390602082028036833750919291505056fe455243373231466f7245524332303a20636f756e74657263616c6c20746172676574206d75737420657175616c2061646472657373206f6620746f6b656e20746f20676574616e794552433230466f72455243333532353a20636f756e74657263616c6c20746172676574206d75737420657175616c2061646472657373206f6620746f6b656e20746f2067697665616e794552433230466f72455243313135353a206e756d657261746f72206d757374206265206c6172676572207468616e207a65726f4552433230466f724552433732313a2063616c6c206d7573742062652061206469726563742063616c6c4552433230466f724552433732313a2063616c6c20746172676574206d75737420657175616c2061646472657373206f6620746f6b656e20746f2067697665616e7945524331313535466f7245524332303a20636f756e74657263616c6c20746172676574206d75737420657175616c2061646472657373206f6620746f6b656e20746f20676574616e794552433230466f7245524332303a2063616c6c206d7573742062652061206469726563742063616c6c616e7945524331313535466f7245524332303a206e65772066696c6c2065786365656473206d6178696d756d2066696c6c616e794552433230466f7245524332303a206e65772066696c6c2065786365656473206d6178696d756d2066696c6c455243373231466f7245524332303a205a65726f2076616c7565207265717569726564616e7945524331313535466f7245524332303a2063616c6c206d7573742062652061206469726563742063616c6c616e794552433230466f7245524332303a206e756d657261746f72206d757374206265206c6172676572207468616e207a65726f4552433230466f724552433732313a20455243373231207072696365206d757374206265206c6172676572207468616e207a65726f616e794552433230466f72455243333532353a205a65726f2076616c7565207265717569726564616e794552433230466f72455243313135353a2064656e6f6d696e61746f72206d757374206265206c6172676572207468616e207a65726f616e794552433230466f72455243333532353a206e65772066696c6c2065786365656473206d6178696d756d2066696c6c455243373231466f7245524332303a2063616c6c20746172676574206d75737420657175616c2061646472657373206f6620746f6b656e20746f2067697665616e794552433230466f7245524332303a20636f756e74657263616c6c20746172676574206d75737420657175616c2061646472657373206f6620746f6b656e20746f20676574616e794552433230466f72455243313135353a2063616c6c206d7573742062652061206469726563742063616c6c4552433230466f724552433732313a20636f756e74657263616c6c20746172676574206d75737420657175616c2061646472657373206f6620746f6b656e20746f20676574616e794552433230466f7245524332303a2063616c6c20746172676574206d75737420657175616c2061646472657373206f6620746f6b656e20746f2067697665616e794552433230466f7245524332303a2064656e6f6d696e61746f72206d757374206265206c6172676572207468616e207a65726f4552433230466f724552433732313a205a65726f2076616c7565207265717569726564616e794552433230466f72455243333532353a2063616c6c20746172676574206d75737420657175616c2061646472657373206f6620746f6b656e20746f20676574616e794552433230466f72455243313135353a2063616c6c20746172676574206d75737420657175616c2061646472657373206f6620746f6b656e20746f20676574536166654d6174683a206d756c7469706c69636174696f6e206f766572666c6f77616e7945524333353235466f7245524332303a205a65726f2076616c7565207265717569726564616e794552433230466f72455243313135353a206e65772066696c6c2065786365656473206d6178696d756d2066696c6c616e7945524333353235466f7245524332303a206e65772066696c6c2065786365656473206d6178696d756d2066696c6c455243373231466f7245524332303a2063616c6c206d7573742062652061206469726563742063616c6c616e794552433230466f7245524332303a205a65726f2076616c7565207265717569726564616e794552433230466f72455243333532353a206e756d657261746f72206d757374206265206c6172676572207468616e207a65726f616e7945524333353235466f7245524332303a2063616c6c20746172676574206d75737420657175616c2061646472657373206f6620746f6b656e20746f2067697665616e7945524333353235466f7245524332303a2063616c6c206d7573742062652061206469726563742063616c6c616e794552433230466f72455243313135353a205a65726f2076616c7565207265717569726564616e794552433230466f72455243333532353a2064656e6f6d696e61746f72206d757374206265206c6172676572207468616e207a65726f616e7945524331313535466f7245524332303a2063616c6c20746172676574206d75737420657175616c2061646472657373206f6620746f6b656e20746f2067697665616e794552433230466f72455243333532353a2063616c6c206d7573742062652061206469726563742063616c6c616e7945524331313535466f7245524332303a205a65726f2076616c7565207265717569726564616e7945524333353235466f7245524332303a20636f756e74657263616c6c20746172676574206d75737420657175616c2061646472657373206f6620746f6b656e20746f20676574455243373231466f7245524332303a20455243373231207072696365206d757374206265206c6172676572207468616e207a65726f616e794552433230466f72455243313135353a20636f756e74657263616c6c20746172676574206d75737420657175616c2061646472657373206f6620746f6b656e20746f2067697665a2646970667358221220e98e37ce2f8c1c7e878b1e1e12bf6dbec6e0592688ea2c6cb853e6d51a44a32364736f6c63430007050033",
  "devdoc": {
    "author": "Wyvern Protocol Developers",
    "kind": "dev",
    "methods": {},
    "title": "StaticMarket",
    "version": 1
  },
  "userdoc": {
    "kind": "user",
    "methods": {},
    "version": 1
  },
  "storageLayout": {
    "storage": [],
    "types": null
  }
}