{
  "address": "0x240F6c6B03F78795C96734f18D811defB6C873F2",
  "abi": [
    {
      "inputs": [],
      "stateMutability": "nonpayable",
      "type": "constructor"
    },
    {
      "anonymous": false,
      "inputs": [
        {
          "indexed": true,
          "internalType": "address",
          "name": "previousOwner",
          "type": "address"
        },
        {
          "indexed": true,
          "internalType": "address",
          "name": "newOwner",
          "type": "address"
        }
      ],
      "name": "OwnershipTransferred",
      "type": "event"
    },
    {
      "inputs": [],
      "name": "DELAY_PERIOD",
      "outputs": [
        {
          "internalType": "uint256",
          "name": "",
          "type": "uint256"
        }
      ],
      "stateMutability": "view",
      "type": "function"
    },
    {
      "inputs": [
        {
          "internalType": "address",
          "name": "",
          "type": "address"
        }
      ],
      "name": "contracts",
      "outputs": [
        {
          "internalType": "bool",
          "name": "",
          "type": "bool"
        }
      ],
      "stateMutability": "view",
      "type": "function"
    },
    {
      "inputs": [],
      "name": "delegateProxyImplementation",
      "outputs": [
        {
          "internalType": "address",
          "name": "",
          "type": "address"
        }
      ],
      "stateMutability": "view",
      "type": "function"
    },
    {
      "inputs": [
        {
          "internalType": "address",
          "name": "addr",
          "type": "address"
        }
      ],
      "name": "endGrantAuthentication",
      "outputs": [],
      "stateMutability": "nonpayable",
      "type": "function"
    },
    {
      "inputs": [
        {
          "internalType": "address",
          "name": "authAddress",
          "type": "address"
        }
      ],
      "name": "grantInitialAuthentication",
      "outputs": [],
      "stateMutability": "nonpayable",
      "type": "function"
    },
    {
      "inputs": [],
      "name": "initialAddressSet",
      "outputs": [
        {
          "internalType": "bool",
          "name": "",
          "type": "bool"
        }
      ],
      "stateMutability": "view",
      "type": "function"
    },
    {
      "inputs": [],
      "name": "name",
      "outputs": [
        {
          "internalType": "string",
          "name": "",
          "type": "string"
        }
      ],
      "stateMutability": "view",
      "type": "function"
    },
    {
      "inputs": [],
      "name": "owner",
      "outputs": [
        {
          "internalType": "address",
          "name": "",
          "type": "address"
        }
      ],
      "stateMutability": "view",
      "type": "function"
    },
    {
      "inputs": [
        {
          "internalType": "address",
          "name": "",
          "type": "address"
        }
      ],
      "name": "pending",
      "outputs": [
        {
          "internalType": "uint256",
          "name": "",
          "type": "uint256"
        }
      ],
      "stateMutability": "view",
      "type": "function"
    },
    {
      "inputs": [
        {
          "internalType": "address",
          "name": "",
          "type": "address"
        }
      ],
      "name": "proxies",
      "outputs": [
        {
          "internalType": "contract OwnableDelegateProxy",
          "name": "",
          "type": "address"
        }
      ],
      "stateMutability": "view",
      "type": "function"
    },
    {
      "inputs": [],
      "name": "registerProxy",
      "outputs": [
        {
          "internalType": "contract OwnableDelegateProxy",
          "name": "proxy",
          "type": "address"
        }
      ],
      "stateMutability": "nonpayable",
      "type": "function"
    },
    {
      "inputs": [
        {
          "internalType": "address",
          "name": "user",
          "type": "address"
        }
      ],
      "name": "registerProxyFor",
      "outputs": [
        {
          "internalType": "contract OwnableDelegateProxy",
          "name": "proxy",
          "type": "address"
        }
      ],
      "stateMutability": "nonpayable",
      "type": "function"
    },
    {
      "inputs": [],
      "name": "registerProxyOverride",
      "outputs": [
        {
          "internalType": "contract OwnableDelegateProxy",
          "name": "proxy",
          "type": "address"
        }
      ],
      "stateMutability": "nonpayable",
      "type": "function"
    },
    {
      "inputs": [],
      "name": "renounceOwnership",
      "outputs": [],
      "stateMutability": "nonpayable",
      "type": "function"
    },
    {
      "inputs": [
        {
          "internalType": "address",
          "name": "addr",
          "type": "address"
        }
      ],
      "name": "revokeAuthentication",
      "outputs": [],
      "stateMutability": "nonpayable",
      "type": "function"
    },
    {
      "inputs": [
        {
          "internalType": "address",
          "name": "addr",
          "type": "address"
        }
      ],
      "name": "startGrantAuthentication",
      "outputs": [],
      "stateMutability": "nonpayable",
      "type": "function"
    },
    {
      "inputs": [
        {
          "internalType": "address",
          "name": "from",
          "type": "address"
        },
        {
          "internalType": "address",
          "name": "to",
          "type": "address"
        }
      ],
      "name": "transferAccessTo",
      "outputs": [],
      "stateMutability": "nonpayable",
      "type": "function"
    },
    {
      "inputs": [
        {
          "internalType": "address",
          "name": "newOwner",
          "type": "address"
        }
      ],
      "name": "transferOwnership",
      "outputs": [],
      "stateMutability": "nonpayable",
      "type": "function"
    }
  ],
  "transactionHash": "0x4a2e00f11212ec3aeb17fe15f247640842b618d5129b9de9353c73683056885c",
  "args": [],
  "numDeployments": 1,
  "solcInputHash": "b7cdc38936b0a3739ca147d87d2ce494",
  "bytecode": "0x608060405260006005556006805460ff1916905534801561001f57600080fd5b50600061002a610190565b600080546001600160a01b0319166001600160a01b0383169081178255604051929350917f8be0079c531659141344cd1fd0a4f28419497f9722a3daafe3b4186f6b6457e0908290a350600060405161008290610194565b604051809103906000f08015801561009e573d6000803e3d6000fd5b506040805163485cc95560e01b81523060048201819052602482015290519192506001600160a01b0383169163485cc9559160448082019260009290919082900301818387803b1580156100f157600080fd5b505af1158015610105573d6000803e3d6000fd5b505060408051634c93505f60e01b81526001600482015290516001600160a01b0385169350634c93505f9250602480830192600092919082900301818387803b15801561015157600080fd5b505af1158015610165573d6000803e3d6000fd5b5050600180546001600160a01b0319166001600160a01b039490941693909317909255506101a19050565b3390565b610af680611ad883390190565b611928806101b06000396000f3fe60806040523480156200001157600080fd5b50600436106200010b5760003560e01c80638da5cb5b116200009f5780638da5cb5b14620002c157806397204d8e14620002cb578063c455279114620002d5578063d4e8e06314620002fe578063dcfa92221462000327578063ddd81f821462000358578063e71a02e11462000362578063ef7f3834146200036c578063f2fde38b1462000395576200010b565b8062686741146200011057806306fdde0314620001555780631a86ac4f14620001d757806338b6e40714620001f557806353376d1f14620002205780635eebea201462000249578063631d9e3f146200028457806369dc9ff3146200028e578063715018a614620002b7575b600080fd5b62000139600480360360208110156200012857600080fd5b50356001600160a01b0316620003be565b604080516001600160a01b039092168252519081900360200190f35b6200015f62000569565b6040805160208082528351818301528351919283929083019185019080838360005b838110156200019b57818101518382015260200162000181565b50505050905090810190601f168015620001c95780820380516001836020036101000a031916815260200191505b509250505060405180910390f35b620001e1620005a2565b604080519115158252519081900360200190f35b6200021e600480360360208110156200020d57600080fd5b50356001600160a01b0316620005ab565b005b6200021e600480360360208110156200023857600080fd5b50356001600160a01b0316620006eb565b62000272600480360360208110156200026157600080fd5b50356001600160a01b031662000774565b60408051918252519081900360200190f35b6200013962000786565b620001e160048036036020811015620002a657600080fd5b50356001600160a01b0316620008bf565b6200021e620008d4565b6200013962000986565b6200013962000995565b6200013960048036036020811015620002ed57600080fd5b50356001600160a01b0316620009a4565b6200021e600480360360208110156200031657600080fd5b50356001600160a01b0316620009bf565b6200021e600480360360408110156200033f57600080fd5b506001600160a01b038135811691602001351662000ac0565b6200013962000bb3565b6200027262000bc5565b6200021e600480360360208110156200038457600080fd5b50356001600160a01b031662000bcb565b6200021e60048036036020811015620003ad57600080fd5b50356001600160a01b031662000cac565b6001600160a01b038181166000908152600260205260408120549091161562000429576040805162461bcd60e51b81526020600482015260186024820152775573657220616c72656164792068617320612070726f787960401b604482015290519081900360640190fd5b600154604080516001600160a01b0380861660248301523060448084019190915283518084039091018152606490920183526020820180516001600160e01b031663485cc95560e01b179052915185939290921691620004899062000dba565b80846001600160a01b03168152602001836001600160a01b0316815260200180602001828103825283818151815260200191508051906020019080838360005b83811015620004e3578181015183820152602001620004c9565b50505050905090810190601f168015620005115780820380516001836020036101000a031916815260200191505b50945050505050604051809103906000f08015801562000535573d6000803e3d6000fd5b506001600160a01b03928316600090815260026020526040902080546001600160a01b031916938216939093179092555090565b6040518060400160405280601e81526020017f57797665726e2050726f746f636f6c2050726f7879205265676973747279000081525081565b60065460ff1681565b620005b562000db6565b6001600160a01b0316620005c862000986565b6001600160a01b03161462000613576040805162461bcd60e51b8152602060048201819052602482015260008051602062001836833981519152604482015290519081900360640190fd5b6001600160a01b03811660009081526004602052604090205460ff161580156200065457506001600160a01b03811660009081526003602052604090205415155b80156200067d57506005546001600160a01b038216600090815260036020526040902054429101105b620006ba5760405162461bcd60e51b8152600401808060200182810382526046815260200180620017f06046913960600191505060405180910390fd5b6001600160a01b0316600090815260036020908152604080832083905560049091529020805460ff19166001179055565b620006f562000db6565b6001600160a01b03166200070862000986565b6001600160a01b03161462000753576040805162461bcd60e51b8152602060048201819052602482015260008051602062001836833981519152604482015290519081900360640190fd5b6001600160a01b03166000908152600460205260409020805460ff19169055565b60036020526000908152604090205481565b6001546040805133602482018190523060448084019190915283518084039091018152606490920183526020820180516001600160e01b031663485cc95560e01b17905291516000936001600160a01b03169190620007e59062000dba565b80846001600160a01b03168152602001836001600160a01b0316815260200180602001828103825283818151815260200191508051906020019080838360005b838110156200083f57818101518382015260200162000825565b50505050905090810190601f1680156200086d5780820380516001836020036101000a031916815260200191505b50945050505050604051809103906000f08015801562000891573d6000803e3d6000fd5b5033600090815260026020526040902080546001600160a01b0319166001600160a01b038316179055919050565b60046020526000908152604090205460ff1681565b620008de62000db6565b6001600160a01b0316620008f162000986565b6001600160a01b0316146200093c576040805162461bcd60e51b8152602060048201819052602482015260008051602062001836833981519152604482015290519081900360640190fd5b600080546040516001600160a01b03909116907f8be0079c531659141344cd1fd0a4f28419497f9722a3daafe3b4186f6b6457e0908390a3600080546001600160a01b0319169055565b6000546001600160a01b031690565b6001546001600160a01b031681565b6002602052600090815260409020546001600160a01b031681565b620009c962000db6565b6001600160a01b0316620009dc62000986565b6001600160a01b03161462000a27576040805162461bcd60e51b8152602060048201819052602482015260008051602062001836833981519152604482015290519081900360640190fd5b6001600160a01b03811660009081526004602052604090205460ff1615801562000a6757506001600160a01b038116600090815260036020526040902054155b62000aa45760405162461bcd60e51b8152600401808060200182810382526033815260200180620018c06033913960400191505060405180910390fd5b6001600160a01b03166000908152600360205260409020429055565b6001600160a01b038083166000908152600260205260409020541633811462000b1b5760405162461bcd60e51b815260040180806020018281038252602e8152602001806200179c602e913960400191505060405180910390fd5b6001600160a01b03828116600090815260026020526040902054161562000b745760405162461bcd60e51b8152600401808060200182810382526030815260200180620018566030913960400191505060405180910390fd5b6001600160a01b0392831660009081526002602052604080822080546001600160a01b0319908116909155938516825290208054919093169116179055565b600062000bc033620003be565b905090565b60055481565b62000bd562000db6565b6001600160a01b031662000be862000986565b6001600160a01b03161462000c33576040805162461bcd60e51b8152602060048201819052602482015260008051602062001836833981519152604482015290519081900360640190fd5b60065460ff161562000c775760405162461bcd60e51b815260040180806020018281038252603a81526020018062001886603a913960400191505060405180910390fd5b6006805460ff1990811660019081179092556001600160a01b0390921660009081526004602052604090208054909216179055565b62000cb662000db6565b6001600160a01b031662000cc962000986565b6001600160a01b03161462000d14576040805162461bcd60e51b8152602060048201819052602482015260008051602062001836833981519152604482015290519081900360640190fd5b6001600160a01b03811662000d5b5760405162461bcd60e51b8152600401808060200182810382526026815260200180620017ca6026913960400191505060405180910390fd5b600080546040516001600160a01b03808516939216917f8be0079c531659141344cd1fd0a4f28419497f9722a3daafe3b4186f6b6457e091a3600080546001600160a01b0319166001600160a01b0392909216919091179055565b3390565b6109d38062000dc98339019056fe608060405234801561001057600080fd5b506040516109d33803806109d38339818101604052606081101561003357600080fd5b8151602083015160408085018051915193959294830192918464010000000082111561005e57600080fd5b90830190602082018581111561007357600080fd5b825164010000000081118282018810171561008d57600080fd5b82525081516020918201929091019080838360005b838110156100ba5781810151838201526020016100a2565b50505050905090810190601f1680156100e75780820380516001836020036101000a031916815260200191505b506040525050506100fd836101f060201b60201c565b61010682610212565b6000826001600160a01b0316826040518082805190602001908083835b602083106101425780518252601f199092019160209182019101610123565b6001836020036101000a038019825116818451168082178552505050505050905001915050600060405180830381855af49150503d80600081146101a2576040519150601f19603f3d011682016040523d82523d6000602084013e6101a7565b606091505b50509050806101e75760405162461bcd60e51b815260040180806020018281038252602a8152602001806109a9602a913960400191505060405180910390fd5b505050506102a7565b600180546001600160a01b0319166001600160a01b0392909216919091179055565b6000546001600160a01b038281169116141561025f5760405162461bcd60e51b81526004018080602001828103825260268152602001806109836026913960400191505060405180910390fd5b600080546001600160a01b0319166001600160a01b038316908117825560405190917fbc7cd75a20ee27fd9adebab32041f755214dbc6bffa90cc0225b39da2e5c2d3b91a250565b6106cd806102b66000396000f3fe6080604052600436106100605760003560e01c8063025313a2146100ec5780633659cfe61461011d5780634555d5c9146101525780634f1ef286146101795780635c60da1b1461022f5780636fde820214610244578063f1739cae14610259575b600061006a61028c565b90506001600160a01b0381166100c7576040805162461bcd60e51b815260206004820152601d60248201527f50726f787920696d706c656d656e746174696f6e207265717569726564000000604482015290519081900360640190fd5b60405136600082376000803683855af43d806000843e8180156100e8578184f35b8184fd5b3480156100f857600080fd5b5061010161029b565b604080516001600160a01b039092168252519081900360200190f35b34801561012957600080fd5b506101506004803603602081101561014057600080fd5b50356001600160a01b03166102aa565b005b34801561015e57600080fd5b5061016761030d565b60408051918252519081900360200190f35b6101506004803603604081101561018f57600080fd5b6001600160a01b0382351691908101906040810160208201356401000000008111156101ba57600080fd5b8201836020820111156101cc57600080fd5b803590602001918460018302840111640100000000831117156101ee57600080fd5b91908080601f016020809104026020016040519081016040528093929190818152602001838380828437600092019190915250929550610312945050505050565b34801561023b57600080fd5b5061010161028c565b34801561025057600080fd5b5061010161046e565b34801561026557600080fd5b506101506004803603602081101561027c57600080fd5b50356001600160a01b031661047d565b6000546001600160a01b031690565b60006102a561046e565b905090565b6102b261029b565b6001600160a01b0316336001600160a01b0316146103015760405162461bcd60e51b815260040180806020018281038252602981526020018061066f6029913960400191505060405180910390fd5b61030a8161056d565b50565b600290565b61031a61029b565b6001600160a01b0316336001600160a01b0316146103695760405162461bcd60e51b815260040180806020018281038252602981526020018061066f6029913960400191505060405180910390fd5b610372826102aa565b6000306001600160a01b0316826040518082805190602001908083835b602083106103ae5780518252601f19909201916020918201910161038f565b6001836020036101000a038019825116818451168082178552505050505050905001915050600060405180830381855af49150503d806000811461040e576040519150601f19603f3d011682016040523d82523d6000602084013e610413565b606091505b5050905080610469576040805162461bcd60e51b815260206004820152601f60248201527f43616c6c206661696c65642061667465722070726f7879207570677261646500604482015290519081900360640190fd5b505050565b6001546001600160a01b031690565b61048561029b565b6001600160a01b0316336001600160a01b0316146104d45760405162461bcd60e51b815260040180806020018281038252602981526020018061066f6029913960400191505060405180910390fd5b6001600160a01b0381166105195760405162461bcd60e51b815260040180806020018281038252602481526020018061064b6024913960400191505060405180910390fd5b7f5a3e66efaa1e445ebd894728a69d6959842ea1e97bd79b892797106e270efcd961054261029b565b604080516001600160a01b03928316815291841660208301528051918290030190a161030a81610602565b6000546001600160a01b03828116911614156105ba5760405162461bcd60e51b81526004018080602001828103825260268152602001806106256026913960400191505060405180910390fd5b600080546001600160a01b0319166001600160a01b038316908117825560405190917fbc7cd75a20ee27fd9adebab32041f755214dbc6bffa90cc0225b39da2e5c2d3b91a250565b600180546001600160a01b0319166001600160a01b039290921691909117905556fe50726f787920616c72656164792075736573207468697320696d706c656d656e746174696f6e4e6577206f776e65722063616e6e6f7420626520746865206e756c6c20616464726573734f6e6c79207468652070726f7879206f776e65722063616e2063616c6c2074686973206d6574686f64a26469706673582212204b27638a6973e2086191aadcce82f617a407be2fd66e626dc45b5b35a0dec3db64736f6c6343000705003350726f787920616c72656164792075736573207468697320696d706c656d656e746174696f6e4f776e61626c6544656c656761746550726f7879206661696c656420696d706c656d656e746174696f6e50726f7879207472616e736665722063616e206f6e6c792062652063616c6c6564206279207468652070726f78794f776e61626c653a206e6577206f776e657220697320746865207a65726f2061646472657373436f6e7472616374206973206e6f206c6f6e6765722070656e64696e67206f722068617320616c7265616479206265656e20617070726f7665642062792072656769737472794f776e61626c653a2063616c6c6572206973206e6f7420746865206f776e657250726f7879207472616e7366657220686173206578697374696e672070726f78792061732064657374696e6174696f6e57797665726e2050726f746f636f6c2050726f787920526567697374727920696e697469616c206164647265737320616c726561647920736574436f6e747261637420697320616c726561647920616c6c6f77656420696e2072656769737472792c206f722070656e64696e67a26469706673582212206ca491493ae14444a084d672ba3d389402d466cc30f08e8e813a2bb6e13c948b64736f6c6343000705003360806040526001805460ff60a01b1916905534801561001d57600080fd5b50610ac98061002d6000396000f3fe6080604052600436106100765760003560e01c80631b0f7ba9146100ae5780633f801f911461018b578063485cc955146102565780634c93505f146102915780634f8632ba146102bd57806363d256ce146102ee5780636fde8202146103035780637b103999146103185780638f4ffcb11461032d575b60408051348152905133917fa419615bc8fda4c87663805ee2a3597a6d71c1d476911d9892f340d965bc7bf1919081900360200190a2005b3480156100ba57600080fd5b50610177600480360360608110156100d157600080fd5b6001600160a01b038235169160ff60208201351691810190606081016040820135600160201b81111561010357600080fd5b82018360208201111561011557600080fd5b803590602001918460018302840111600160201b8311171561013657600080fd5b91908080601f0160208091040260200160405190810160405280939291908181526020018383808284376000920191909152509295506103fd945050505050565b604080519115158252519081900360200190f35b34801561019757600080fd5b50610254600480360360608110156101ae57600080fd5b6001600160a01b038235169160ff60208201351691810190606081016040820135600160201b8111156101e057600080fd5b8201836020820111156101f257600080fd5b803590602001918460018302840111600160201b8311171561021357600080fd5b91908080601f016020809104026020016040519081016040528093929190818152602001838380828437600092019190915250929550610660945050505050565b005b34801561026257600080fd5b506102546004803603604081101561027957600080fd5b506001600160a01b03813581169160200135166106ba565b34801561029d57600080fd5b50610254600480360360208110156102b457600080fd5b50351515610744565b3480156102c957600080fd5b506102d26107e0565b604080516001600160a01b039092168252519081900360200190f35b3480156102fa57600080fd5b506101776107ef565b34801561030f57600080fd5b506102d26107ff565b34801561032457600080fd5b506102d261080e565b34801561033957600080fd5b506102546004803603608081101561035057600080fd5b6001600160a01b038235811692602081013592604082013590921691810190608081016060820135600160201b81111561038957600080fd5b82018360208201111561039b57600080fd5b803590602001918460018302840111600160201b831117156103bc57600080fd5b91908080601f01602080910402602001604051908101604052809392919081815260200183838082843760009201919091525092955061081d945050505050565b6002546000906001600160a01b03163314806104a15750600354600160a01b900460ff161580156104a15750600354604080516369dc9ff360e01b815233600482015290516001600160a01b03909216916369dc9ff391602480820192602092909190829003018186803b15801561047457600080fd5b505afa158015610488573d6000803e3d6000fd5b505050506040513d602081101561049e57600080fd5b50515b6104dc5760405162461bcd60e51b815260040180806020018281038252608a8152602001806109d7608a913960a00191505060405180910390fd5b606060008460018111156104ec57fe5b141561059e57846001600160a01b0316836040518082805190602001908083835b6020831061052c5780518252601f19909201916020918201910161050d565b6001836020036101000a0380198251168184511680821785525050505050509050019150506000604051808303816000865af19150503d806000811461058e576040519150601f19603f3d011682016040523d82523d6000602084013e610593565b606091505b509092509050610658565b60018460018111156105ac57fe5b141561065857846001600160a01b0316836040518082805190602001908083835b602083106105ec5780518252601f1990920191602091820191016105cd565b6001836020036101000a038019825116818451168082178552505050505050905001915050600060405180830381855af49150503d806000811461064c576040519150601f19603f3d011682016040523d82523d6000602084013e610651565b606091505b5090925090505b509392505050565b61066b8383836103fd565b6106b5576040805162461bcd60e51b8152602060048201526016602482015275141c9bde1e48185cdcd95c9d1a5bdb8819985a5b195960521b604482015290519081900360640190fd5b505050565b600154600160a01b900460ff16156107035760405162461bcd60e51b81526004018080602001828103825260278152602001806109b06027913960400191505060405180910390fd5b6001805460ff60a01b1916600160a01b179055600280546001600160a01b039384166001600160a01b03199182161790915560038054929093169116179055565b6002546001600160a01b0316331461078d5760405162461bcd60e51b8152600401808060200182810382526033815260200180610a616033913960400191505060405180910390fd5b60038054821515600160a01b810260ff60a01b199092169190911790915560408051918252517f2165014523a6f4135deffed62d70149aad59b64de5aac51e3abbcbe2a83e2f7e9181900360200190a150565b6002546001600160a01b031681565b600354600160a01b900460ff1681565b6001546001600160a01b031690565b6003546001600160a01b031681565b604080516323b872dd60e01b81526001600160a01b03868116600483015230602483015260448201869052915184928316916323b872dd9160648083019260209291908290030181600087803b15801561087657600080fd5b505af115801561088a573d6000803e3d6000fd5b505050506040513d60208110156108a057600080fd5b50516108f3576040805162461bcd60e51b815260206004820152601b60248201527f455243323020746f6b656e207472616e73666572206661696c65640000000000604482015290519081900360640190fd5b826001600160a01b0316856001600160a01b03167fd65b48fd35864b3528d38e44760be5553248f89bf3ff6b06cca57817cc2650bf86856040518083815260200180602001828103825283818151815260200191508051906020019080838360005b8381101561096d578181015183820152602001610955565b50505050905090810190601f16801561099a5780820380516001836020036101000a031916815260200191505b50935050505060405180910390a3505050505056fe41757468656e746963617465642070726f787920616c726561647920696e697469616c697a656441757468656e746963617465642070726f78792063616e206f6e6c792062652063616c6c65642062792069747320757365722c206f72206279206120636f6e747261637420617574686f72697a656420627920746865207265676973747279206173206c6f6e6720617320746865207573657220686173206e6f74207265766f6b65642061636365737341757468656e746963617465642070726f78792063616e206f6e6c79206265207265766f6b6564206279206974732075736572a2646970667358221220cc0bb22d234f6d3940d7058bf5e116991db1c3ab3d13b54c98dbb71dd45109b564736f6c63430007050033",
  "devdoc": {
    "author": "Wyvern Protocol Developers",
    "kind": "dev",
    "methods": {
      "endGrantAuthentication(address)": {
        "details": "ProxyRegistry owner only",
        "params": {
          "addr": "Address to which to grant permissions"
        }
      },
      "grantInitialAuthentication(address)": {
        "details": "No delay, can only be called once - after that the standard registry process with a delay must be used",
        "params": {
          "authAddress": "Address of the contract to grant authentication"
        }
      },
      "owner()": {
        "details": "Returns the address of the current owner."
      },
      "registerProxy()": {
        "details": "Must be called by the user which the proxy is for, creates a new AuthenticatedProxy",
        "returns": {
          "proxy": "New AuthenticatedProxy contract"
        }
      },
      "registerProxyFor(address)": {
        "details": "Can be called by any user",
        "returns": {
          "proxy": "New AuthenticatedProxy contract"
        }
      },
      "registerProxyOverride()": {
        "details": "Must be called by the user which the proxy is for, creates a new AuthenticatedProxy",
        "returns": {
          "proxy": "New AuthenticatedProxy contract"
        }
      },
      "renounceOwnership()": {
        "details": "Leaves the contract without owner. It will not be possible to call `onlyOwner` functions anymore. Can only be called by the current owner. NOTE: Renouncing ownership will leave the contract without an owner, thereby removing any functionality that is only available to the owner."
      },
      "revokeAuthentication(address)": {
        "details": "ProxyRegistry owner only",
        "params": {
          "addr": "Address of which to revoke permissions"
        }
      },
      "startGrantAuthentication(address)": {
        "details": "ProxyRegistry owner only",
        "params": {
          "addr": "Address to which to grant permissions"
        }
      },
      "transferOwnership(address)": {
        "details": "Transfers ownership of the contract to a new account (`newOwner`). Can only be called by the current owner."
      }
    },
    "title": "WyvernRegistry",
    "version": 1
  },
  "userdoc": {
    "kind": "user",
    "methods": {
      "endGrantAuthentication(address)": {
        "notice": "End the process to enable access for specified contract after delay period has passed."
      },
      "grantInitialAuthentication(address)": {
        "notice": "Grant authentication to the initial Exchange protocol contract"
      },
      "registerProxy()": {
        "notice": "Register a proxy contract with this registry"
      },
      "registerProxyFor(address)": {
        "notice": "Register a proxy contract with this registry"
      },
      "registerProxyOverride()": {
        "notice": "Register a proxy contract with this registry, overriding any existing proxy"
      },
      "revokeAuthentication(address)": {
        "notice": "Revoke access for specified contract. Can be done instantly."
      },
      "startGrantAuthentication(address)": {
        "notice": "Start the process to enable access for specified contract. Subject to delay period."
      },
      "transferAccessTo(address,address)": {
        "notice": "Transfer access"
      }
    },
    "version": 1
  },
  "storageLayout": {
    "storage": [
      {
        "astId": 8341,
        "contract": "contracts/WyvernRegistry.sol:WyvernRegistry",
        "label": "_owner",
        "offset": 0,
        "slot": "0",
        "type": "t_address"
      },
      {
        "astId": 5043,
        "contract": "contracts/WyvernRegistry.sol:WyvernRegistry",
        "label": "delegateProxyImplementation",
        "offset": 0,
        "slot": "1",
        "type": "t_address"
      },
      {
        "astId": 5048,
        "contract": "contracts/WyvernRegistry.sol:WyvernRegistry",
        "label": "proxies",
        "offset": 0,
        "slot": "2",
        "type": "t_mapping(t_address,t_contract(OwnableDelegateProxy)5030)"
      },
      {
        "astId": 5052,
        "contract": "contracts/WyvernRegistry.sol:WyvernRegistry",
        "label": "pending",
        "offset": 0,
        "slot": "3",
        "type": "t_mapping(t_address,t_uint256)"
      },
      {
        "astId": 5056,
        "contract": "contracts/WyvernRegistry.sol:WyvernRegistry",
        "label": "contracts",
        "offset": 0,
        "slot": "4",
        "type": "t_mapping(t_address,t_bool)"
      },
      {
        "astId": 5059,
        "contract": "contracts/WyvernRegistry.sol:WyvernRegistry",
        "label": "DELAY_PERIOD",
        "offset": 0,
        "slot": "5",
        "type": "t_uint256"
      },
      {
        "astId": 3087,
        "contract": "contracts/WyvernRegistry.sol:WyvernRegistry",
        "label": "initialAddressSet",
        "offset": 0,
        "slot": "6",
        "type": "t_bool"
      }
    ],
    "types": {
      "t_address": {
        "encoding": "inplace",
        "label": "address",
        "numberOfBytes": "20"
      },
      "t_bool": {
        "encoding": "inplace",
        "label": "bool",
        "numberOfBytes": "1"
      },
      "t_contract(OwnableDelegateProxy)5030": {
        "encoding": "inplace",
        "label": "contract OwnableDelegateProxy",
        "numberOfBytes": "20"
      },
      "t_mapping(t_address,t_bool)": {
        "encoding": "mapping",
        "key": "t_address",
        "label": "mapping(address => bool)",
        "numberOfBytes": "32",
        "value": "t_bool"
      },
      "t_mapping(t_address,t_contract(OwnableDelegateProxy)5030)": {
        "encoding": "mapping",
        "key": "t_address",
        "label": "mapping(address => contract OwnableDelegateProxy)",
        "numberOfBytes": "32",
        "value": "t_contract(OwnableDelegateProxy)5030"
      },
      "t_mapping(t_address,t_uint256)": {
        "encoding": "mapping",
        "key": "t_address",
        "label": "mapping(address => uint256)",
        "numberOfBytes": "32",
        "value": "t_uint256"
      },
      "t_uint256": {
        "encoding": "inplace",
        "label": "uint256",
        "numberOfBytes": "32"
      }
    }
  }
}